:100000009028FF3FFF3FFF3FFF00030E8301BA0030
:100010000408B9000A08BB008A017208DE007108F2
:10002000DD007008DC0000308C1A0130F20072082C
:10003000013A031D26286D257008013A031D232867
:1000400037257008A0008C1283168C1603138316B4
:1000500000308B180130F2007208013A031D742839
:1000600083122108003C0318712886122108013AE6
:10007000031D3D28F03081006E282108023A031D3F
:100080004428E13081006E282108033A031D4B28E3
:10009000D13081006E282108043A031D5228C13056
:1000A00081006E282108053A031D5928B2308100CD
:1000B0006E282108063A031D6028A23081006E28B0
:1000C0002108073A031D6728923081006E28210815
:1000D000083A031D6E28833081006E280B118B16A1
:1000E000722886168B100B160313831200300B191F
:1000F0000130F2007208013A031D812886160B11A7
:100100008B125E08F2005D08F1005C08F0003B080D
:100110008A00390884003A0E8300FF0E7F0E090022
:10012000C5300313831681008B0103178801023049
:10013000890003138501093086008030870083120F
:10014000850186018701AC01A101AD01AE01AF01BE
:10015000B001B101A00119308316990018152225AC
:100160008230FB00FF30FA00FB0BB728BA28FA0BED
:10017000B728B4288730FA00FA0BBC2800000530F5
:10018000D1000630D2000530D3000430D400033053
:10019000D5000530D600D7010130D8000230D90093
:1001A00072228230FB00FF30FA00FB0BD828DB28DC
:1001B000FA0BD828D5288730FA00FA0BDD28000082
:1001C0000C30DB0091230130DB0091230130D100A2
:1001D0000130D2004D30BD006530BE006430BF003C
:1001E0006930C0006430C1006F30C2007230C3009B
:1001F0002030C4005430C5006530C6006D30C700E3
:100200007030C8006530C9007230CA006130CB0060
:100210007430CC007530CD007230CE006130CF002C
:10022000D0013D30D3003824D0308B0020308316ED
:100230008C0083128C018230FB00FF30FA00FB0B34
:1002400022292529FA0B22291F298730FA00FA0BC7
:10025000272900000930D100A9247008B2007108D4
:10026000B3006430F400F501DA24E630F400F5015F
:1002700005257008B4007108B500AD0A0330FB0015
:10028000FF30FA00FB0B45294829FA0B4529422982
:100290009630FA00FA0B4A297008AE077108031865
:1002A000013FAF07C8302D02031C572958292A29BE
:1002B000C830F400F5012E08F0002F08F1000525E4
:1002C0007008B0007108B1007108003C031D6A2974
:1002D00070082002031872290830210203187129BE
:1002E000A10A77292108003C03187729A10364306B
:1002F000F400F5013008F0003108F10005250A305E
:10030000F400F50105257808F0007908F100303097
:10031000F0070318F10A7008B6000A30F400F5017E
:100320003008F0003108F10005250A30F400F5012D
:1003300005257808F0007908F1003030F00703183F
:10034000F10A7008B7000A30F400F5013008F00037
:100350003108F10005257808F0007908F100303007
:10036000F0070318F10A7008B8003108003C031DBB
:10037000BB293008633C0318F8290230AC00023076
:10038000D1000630D2005430BD003D30BE00BF0168
:100390003D30D30038240230D1000830D200360876
:1003A000D30077240230D1000930D2003708D300BF
:1003B00077240230D1000A30D2003808D3007724E5
:1003C0000230D1000B30D2002030BD002A30BE00F8
:1003D0004330BF00C0013D30D30038243608D1007F
:1003E0004A253708D1004A253808D1004A25462A2F
:1003F0002C08023A031D182A0230D1000630D20020
:100400002030BD002030BE002030BF002030C000B2
:100410002030C1002030C2002030C3002030C40092
:100420002030C500C6013D30D30038240330AC0075
:100430000230D1000630D2005430BD003D30BE0045
:10044000BF013D30D30038240230D1000830D20043
:100450003708D30077240230D1000930D2003808A1
:10046000D30077240230D1000B30D2002030BD0001
:100470002A30BE004330BF00C0013D30D3003824D5
:100480003708D1004A253808D1004A250A30D10062
:100490004A250D30D1004A25AD01AE01AF01B001B2
:1004A000B1010330FC00FF30FB00FF30FA00FC0B11
:1004B0005A2A612AFB0B5D2A602AFA0B5D2A5A2A06
:1004C000572A8C30FB00FF30FA00FB0B682A6B2A9E
:1004D000FA0B682A652AA130FA00FA0B6D2A00008F
:1004E0002A29712A5C255C255C255208F000013020
:1004F000F40070080319802AF40D7410FF3F7A2A63
:100500007408A6005308F0000130F30070080319C6
:100510008D2AF30D7310FF3F872A7308A700540834
:10052000F0000130F200700803199A2AF20D7210DF
:10053000FF3F942A7208A8005508F0000130F1002E
:1005400070080319A72AF10D7110FF3FA12A710845
:10055000A9005708F0000130A40070080319B42A5C
:10056000A40D2410FF3FAE2A5808F0000130AB0064
:1005700070080319BF2AAB0D2B10FF3FB92A590889
:10058000F0000130A30070080319CA2AA30D23103C
:10059000FF3FC42A5108A5005608A2005108840054
:1005A00073087404F0007208F0047108F004F00994
:1005B00070088005841727082604F0002808F00436
:1005C0002908F004F00970088005841322088400CB
:1005D0002B082404F0002308F004F00970088005BB
:1005E00084172B082404F0002308F004F009700895
:1005F000800584132508840028080004F0002908D9
:100600007004800022088400230880042309F0007D
:10061000700880055C25230880042309F000700819
:1006200080055C25230880042309F00070088005FC
:100630005C2525088400280880042909F00070083A
:10064000800522088400230880042309F000700834
:1006500080055C25230880042309F10071088005CA
:10066000250884002809F000700880052608800409
:100670002208840023088004710880055C25250871
:1006800084002609F00070088005290880042208EB
:100690008400230880042309F100710880052508DF
:1006A00084002909F00070088005220884002308CE
:1006B0008004710880055C25230880042309F0006C
:1006C0007008800525088400290880042208840019
:1006D00023088004700880055C252508840029090A
:1006E000F000700880052208840023088004230994
:1006F000F100710880052508840029080004F00035
:100700002808F0042708F004260870048000220856
:10071000840023088004710880055C250130AA004C
:10072000080003138312220884002309F0007008D4
:1007300080052409F000700880052508840027083A
:100740002604F0002808F0042908F004F0097008D5
:1007500080050030DB1B0130F1007108013A031DF8
:10076000B32B2608800400305B1B0130F1007108B8
:10077000013A031DBD2B270880040030DB1A01302D
:10078000F1007108013A031DC72B280880040030CE
:100790005B1A0130F1007108013A031DD12B2908C1
:1007A0008004220884002A08013A031DDC2B240956
:1007B000F00070088005DE2B2408800423088004E4
:1007C00092252309F000700880052409F0007008C4
:1007D00080052508840027082604F0002808F00476
:1007E0002908F004F009700880050030DB19013099
:1007F000F1007108013A031DFF2B26088004003028
:100800005B190130F1007108013A031D092C27081A
:1008100080040030DB180130F1007108013A031D3B
:10082000132C2808800401305B05F1007108013A9F
:10083000031D1C2C29088004220884002A08013A80
:10084000031D272C2409F00070088005292C24089A
:1008500080042308800492252309F0007008800595
:100860002A08013A031D362C5C25372C8325080005
:10087000031383125108013A031D412C8030D1002B
:10088000582C5108023A031D482CC030D100582C76
:100890005108033A031D4F2C9430D100582C5108B5
:1008A000043A031D562CD430D100582C8030D1008E
:1008B0005203F0005108F0077008D1007008DB0007
:1008C0009123AA01D4015408530784000008F200C0
:1008D0007208003A0319742C540853078400000866
:1008E000DA007A25D40A632C0130AA000800031329
:1008F00083125108013A031D802C8030D100972CBF
:100900005108023A031D872CC030D100972C5108A2
:10091000033A031D8E2C9430D100972C5108043AD1
:10092000031D952CD430D100972C8030D100520873
:100930005107F000F0037008D1000130AA007008E0
:10094000DB009123AA015308DB0091230130AA00A8
:100950000800C030031383129F005108F000F00D0F
:100960007010F00D701070089F0483169F1783128B
:100970001F148B259F141F08F2000030F21801305D
:10098000F2007208003A031DBB2C1F101E08F20073
:10099000F3017208F300F20183161E087204831239
:1009A000D2007308D3000030D3045208F00053087B
:1009B000F100080003138312FB01FA01F9018030F2
:1009C000F800F10CF00C031CEE2C7408F907750804
:1009D0000318750FFA070318FB0A0310F01FF62C13
:1009E0007408FA0775080318750FFB07FB0CFA0C5F
:1009F000F90CF80C031CE12C7B08F3007A08F200D8
:100A00007908F1007808F000080003138312F80158
:100A1000F9011030FC00710DF80DF90D7408F802A1
:100A20007508031C750FF90203181D2D7408F807CB
:100A300075080318750FF9070310F00DF10DFC0B85
:100A40000B2D08000313831698169030831298001C
:100A500083168717071383120C08F1000030F11A70
:100A60000130F1007108013A03192B2D080003131E
:100A700083121A08BC001808F1000030F118013088
:100A8000F1007108013A031D472D181218163C0891
:100A9000F0000800031383161808F1000030F11865
:100AA0000130F1007108003A031D582D00004A2D55
:100AB0008312510899000800083003138312FB00C9
:100AC000FF30FA00FB0B652D682DFA0B652D622DAA
:100AD0001E30FA00FA0B6A2D0800031383120C086B
:100AE000F1000030F11A0130F1007108BC003C083F
:100AF000F000080003138312AA015A08DB009123B7
:100B00000130AA000800103003138312FA00FA0B18
:100B1000872D00000800073003138312FA00FA0B38
:100B20008F2D080000000800FF3FFF3FFF3FFF3F01
:04400E00D420FFFFBC
:00000001FF
