:100000000428FF3FFF3FFF3F80300313831681002A
:10001000031788010A308900031385011830860010
:10002000803087008312850186018701A001A1012C
:10003000A201A301A401A501A601A701A801A9018C
:10004000AA01193083169900181585218230FB000A
:10005000FF30FA00FB0B2D283028FA0B2D282A2818
:100060008730FA00FA0B322800000930BD00F62074
:100070007008AB007108AC000B30BD00F6207008B2
:10008000AD007108AE00A00A0230FB00FF30FA009C
:10009000FB0B4B284E28FA0B4B2848284A30FA0015
:1000A000FA0B50287008A50771080318013FA6072E
:1000B0002B08A7072C080318013FA807C830200207
:1000C000031C632864283528C830F400F50127088C
:1000D000F0002808F10052217008BB007108BC0034
:1000E0003B08A3003C08A400C830F400F501250833
:1000F000F0002608F10052217008B9007108BA001A
:100100003908A1003A08A2003B08F0003C08F100C1
:100110006430F400F5012721E630F400F5015221A6
:100120007008AA0010303907F0003A080318013FA0
:10013000F1007008A9007008BD002F30BE00C42077
:100140002A08BD003430BE00C4207430C1009A219A
:100150002F30BD006F216630C1009A213430BD00C0
:100160006F210A30C1009A210D30C1009A21A001EF
:10017000A701A801A501A601A301A401A101A20153
:10018000AA01A9013528C328013003138312BF0037
:100190003D08093C0318CD28BF0A3D08633C0318FD
:1001A000D228BF0A3E08840020308000840A8000E4
:1001B000840A8000840A800184033F08003C0318FD
:1001C000F5280A30F4003D08F000AC217808F00072
:1001D00030307007800084030A30F4003D08F000DE
:1001E000AC217008BD00BF03DD280800C030031338
:1001F00083129F003D08F000F00D7010F00D70109C
:1002000070089F0483169F1783121F14BD219F142B
:100210001F08F2000030F2180130F2007208003AB4
:10022000031D08291F101E08F200F3017208F300D5
:10023000F20183161E0872048312BE007308BF0009
:100240000030BF043E08F0003F08F100080003132F
:100250008312FB01FA01F9018030F800F10CF00C77
:10026000031C3B297408F90775080318750FFA0772
:100270000318FB0A0310F01F43297408FA077508D6
:100280000318750FFB07FB0CFA0CF90CF80C031C98
:100290002E297B08F3007A08F2007908F10078082B
:1002A000F000080003138312F801F9011030FC007C
:1002B000710DF80DF90D7408F8027508031C750F1F
:1002C000F90203186A297408F80775080318750FEE
:1002D000F9070310F00DF10DFC0B5829080003136A
:1002E0008312BE013D0884000008BF003F08003AA9
:1002F000031984293F08C1009A21BE0A3E083D0720
:1003000084000008BF00762908000313831698169E
:1003100090308312980083168717071383120C08F6
:10032000F1000030F11A0130F1007108013A0319AF
:100330008E290800031383161808F1000030F11805
:100340000130F1007108003A031DA82900009A2924
:10035000831241089900080003138312F801083042
:10036000FC00700DF80D7408F8020318B929F8079D
:100370000310F00DFC0BB1290800073003138312A2
:10038000FA00FA0BC1290800FF3FFF3FFF3FFF3F84
:04400E00D420FFFFBC
:00000001FF
