:100000000428FF3FFF3FFF3F80300313831681002A
:100010000317880102308900031385010830860028
:100020008030870019309900181503248501860156
:1000300087010530C7000630C8000530C90004300C
:10004000CA000330CB000530CC00CD010130CE001A
:100050000230CF0053210C30D10072220130D10088
:1000600072220130C7000130C8004D30B100653048
:10007000B2006430B3006930B4006430B5006F3052
:10008000B6007230B7002030B8005430B900653087
:10009000BA006D30BB007030BC006530BD007230FE
:1000A000BE006130BF007430C0007530C1007230D6
:1000B000C2006130C300C4013130C90019230930C6
:1000C000C7008A237008AA007108AB006430F400EE
:1000D000F501BB23CC30F400F501E6237008C50020
:1000E0007108C6004508AC004608AD006430F40055
:1000F000F5014508F0004608F100E6230A30F40057
:10010000F501E6237808F0007908F1003030F007B7
:100110000318F10A7008AE000A30F400F501450832
:10012000F0004608F100E6230A30F400F501E6236A
:100130007808F0007908F1003030F0070318F10A70
:100140007008AF000A30F400F5014508F0004608D9
:10015000F100E6237808F0007908F1003030F0076C
:100160000318F10A7008B0004608003C031DBA28C5
:100170004508633C0318F5280230C7000630C80064
:100180005430B1003D30B200B3013130C900192301
:100190000230C7000830C8002E08C90058230230BA
:1001A000C7000930C8002F08C90058230230C70013
:1001B0000A30C8003008C90058230230C7000B308D
:1001C000C8002030B1002A30B2004330B300B4017F
:1001D0003130C90019232E08C70018242F08C70082
:1001E00018243008C700182423290230C70006301D
:1001F000C8005430B1003D30B200B3013130C90005
:1002000019230230C7000830C8002F08C90058233E
:100210000230C7000930C8003008C9005823023036
:10022000C7000B30C8002030B1002A30B200433084
:10023000B300B4013130C90019232F08C7001824B6
:100240003008C70018242E08C70018242F08C7003C
:1002500018243008C70018240A30C70018240D30AD
:10026000C70018240230FC00FF30FB00FF30FA000A
:10027000FC0B3B294229FB0B3E294129FA0B3E2965
:100280003B2938294630FB00FF30FA00FB0B492997
:100290004C29FA0B49294629CF30FA00FA0B4E298E
:1002A00000005F2852292A242A242A244808F00022
:1002B0000130F400700803196129F40D7410FF3F38
:1002C0005B297408A4004908F0000130F3007008AD
:1002D00003196E29F30D7310FF3F68297308A500F9
:1002E0004A08F0000130F200700803197B29F20D72
:1002F0007210FF3F75297208A6004B08F00001300C
:10030000F100700803198829F10D7110FF3F82294F
:100310007108A7004D08F0000130A2007008031911
:100320009529A20D2210FF3F8F294E08F0000130C1
:10033000A90070080319A029A90D2910FF3F9A29C7
:100340004F08F0000130A10070080319AB29A10D7E
:100350002110FF3FA5294708A3004C08A00047082B
:10036000840073087404F0007208F0047108F0044B
:10037000F00970088005841725082404F000260879
:10038000F0042708F004F0097008800584132008A1
:10039000840029082204F0002108F004F009700804
:1003A0008005841729082204F0002108F004F009D0
:1003B0007008800584132308840026080004F000D8
:1003C0002708700480002008840021088004210987
:1003D000F000700880052A24210880042109F0001B
:1003E000700880052A24210880042109F000700883
:1003F00080052A2423088400260880042709F000A9
:100400007008800520088400210880042109F0007C
:10041000700880052A24210880042109F100710850
:100420008005230884002609F00070088005240850
:1004300080042008840021088004710880052A2493
:10044000230884002409F000700880052708800430
:1004500020088400210880042109F100710880052A
:10046000230884002709F000700880052008840014
:1004700021088004710880052A24210880042109AC
:10048000F0007008800523088400270880042008F5
:10049000840021088004700880052A242308840031
:1004A0002709F000700880052008840021088004D6
:1004B0002109F10071088005230884002708000441
:1004C000F0002608F0042508F004240870048000D9
:1004D0002008840021088004710880052A24013046
:1004E000A800080003138312200884002109F000EB
:1004F000700880052209F000700880052308840038
:1005000025082404F0002608F0042708F004F00968
:10051000700880050030D11B0130F1007108013AEC
:10052000031D942A240880040030511B0130F1007F
:100530007108013A031D9E2A250880040030D11A53
:100540000130F1007108013A031DA82A2608800431
:100550000030511A0130F1007108013A031DB22A2E
:1005600027088004200884002808013A031DBD2ABA
:100570002209F00070088005BF2A220880042108A3
:10058000800453242109F000700880052209F0003E
:10059000700880052308840025082404F00026083C
:1005A000F0042708F004F009700880050030D11924
:1005B0000130F1007108013A031DE02A240880048B
:1005C000003051190130F1007108013A031DEA2A87
:1005D000250880040030D1180130F1007108013A7B
:1005E000031DF42A2608800401305105F10071082A
:1005F000013A031DFD2A27088004200884002808EA
:10060000013A031D082B2209F000700880050A2B0F
:10061000220880042108800453242109F000700876
:1006200080052808013A031D172B2A24182B44247F
:100630000800031383124708013A031D222B803060
:10064000C700392B4708023A031D292BC030C700C9
:10065000392B4708033A031D302B9430C700392B40
:100660004708043A031D372BD430C700392B80309C
:10067000C7004803F0004708F0077008C70070087B
:10068000D1007222A801CA014A0849078400000863
:10069000F2007208003A0319552B4A0849078400F2
:1006A0000008D0003B24CA0A442B0130A8000800EF
:1006B000031383124708013A031D612B8030C700E2
:1006C000782B4708023A031D682BC030C700782BEF
:1006D0004708033A031D6F2B9430C700782B470857
:1006E000043A031D762BD430C700782B8030C70026
:1006F00048084707F000F0037008C7000130A80061
:100700007008D1007222A8014908D100722201307C
:10071000A8000800C030031383129F004708F000B0
:10072000F00D7010F00D701070089F0483169F1765
:1007300083121F144C249F141F08F2000030F2187B
:100740000130F2007208003A031D9C2B1F101E0896
:10075000F200F3017208F300F20183161E0872041E
:100760008312C8007308C9000030C9044808F000AB
:100770004908F100080003138312FB01FA01F90193
:100780008030F800F10CF00C031CCF2B7408F90733
:1007900075080318750FFA070318FB0A0310F01FFA
:1007A000D72B7408FA0775080318750FFB07FB0CA5
:1007B000FA0CF90CF80C031CC22B7B08F3007A0826
:1007C000F2007908F1007808F000080003138312A2
:1007D000F801F9011030FC00710DF80DF90D7408E5
:1007E000F8027508031C750FF9020318FE2B740834
:1007F000F80775080318750FF9070310F00DF10DD0
:10080000FC0BEC2B08000313831698169030831210
:10081000980083168717071383120C08F100003025
:10082000F11A0130F1007108013A03190C2C08008B
:10083000031383161808F1000030F1180130F1009D
:100840007108003A031D262C0000182C831247085B
:1008500099000800083003138312FB00FF30FA00F0
:10086000FB0B332C362CFA0B332C302C1E30FA00B9
:10087000FA0B382C080003138312A8015008D1008A
:1008800072220130A8000800103003138312FA000E
:10089000FA0B482C00000800073003138312FA00FB
:1008A000FA0B502C080000000800FF3FFF3FFF3FFD
:04400E00D420FFFFBC
:00000001FF
