:0A0000000B2A0000000000009A29FE
:0A000A000730FD00FD0B0728080079
:1000140083120313F8010830FC00700DF80D740806
:10002400F80203181728F8070310F00DFC0B0F282B
:020034000800C2
:10003600831603139818212800001B2883124908E9
:040046009900080015
:10004A00831603138710831212150C309D040800BF
:10005A00831603130711831212150C309704080034
:10006A0083120313FB01FA01F9018030F800F10C45
:10007A00F00C031C49287408F90775080318750F52
:10008A00FA070318FB0A0310F01F51287408FA072D
:10009A0075080318750FFB07FB0CFA0CF90CF80C22
:1000AA00031C3C287B08F3007A08F2007908F10067
:0600BA007808F0000800C8
:1000C00083120313F801F9011030FC00710DF80DD3
:1000D000F90D7408F8027508031C750FF90203186E
:1000E00078287408F80775080318750FF9070310C6
:0A00F000F00DF10DFC0B662808006E
:1000FA00C030831203139F004508F000F00D701002
:10010A00F00D701070089F0483169F1783121F1436
:10011A0005209F149F1C932800008F281F101E087B
:10012A00F300F4017308F100F00183161E0870044D
:10013A008312C6007108C7000030C7044608F000E1
:06014A004708F100080067
:10015000831603131208F000F101F00A0319F10AE3
:1001600083124508F400F50135200630F2007008CE
:10017000F4007108F50072080319C328F50CF40C9B
:10018000F513FF3EBC280430F1007408F00071083C
:100190000319CE28F00D7010FF3EC82883120313F8
:1001A00030307005F3007408F0007508F100F10CB0
:1001B000F00CF113F10CF00CF11370089B000F30F0
:0801C0009D0573089D04080071
:1001C80083120313C601450884000008C7004708C6
:1001D800003A0319F9284708C9001B20C60A46082F
:0C01E800450784000008C700EB28080051
:0C01F400831203139B011D129D120800D2
:10020000831203134608840020308000840A2030C3
:100210008000840A20308000840A8001840A023031
:10022000C70047084607F0007008C8000A30F4000D
:100230004508F0000A207808F0003030F007480840
:100240008400700880000A30F4004508F0000A209D
:100250007008C5007008003A031D2F293129C70313
:040260001129080058
:0C02640083120313950117129712080073
:10027000831203131A08F200981C4029181218164A
:0A0280007208F1007108F000080098
:10028A00831603131208F000F101F00A0319F10AA8
:10029A0083124508F400F50135200630F200700893
:1002AA00F4007108F500720803196029F50CF40CC2
:1002BA00F513FF3E59290430F1007408F000710863
:1002CA0003196B29F00D7010FF3E65298312031381
:1002DA0030307005F3007408F0007508F100F10C75
:1002EA00F00CF113F10CF00CF113700895000F30BB
:0802FA00970573089704080042
:10030200831603139816903083129800831687176A
:10031200071383128C1E90291A08F0008A290800FC
:100322000030831203138C1A0130F1007108F000BF
:020332000800C1
:10033400FF00030E8301B4000A08B5008A017008A7
:10034400AA007108A9007208A8007308A70074081D
:10035400A6007508A5007808A4007908A3007A0807
:10036400A2007B08A1007C08A00091217008013A3A
:10037400031DEE2938217008B6003308013A031D25
:10038400CD293608A03A031DCA290230B300CC296E
:100394000130B300EE293308023A031DE529033086
:1003A400B3003608F000F101FE30F400F501352009
:1003B4000930F400F50160207008AB007108AC004E
:1003C4000130B700EE293308033A031DEE2901304A
:1003D400B3003608B200EE292A08F0002908F1001B
:1003E4002808F2002708F3002608F4002508F50081
:1003F4002408F8002308F9002208FA002108FB0069
:100404002008FC0035088A00340E8300FF0E7F0E9E
:020414000900DD
:100416008030831603138100C0308B0020308C009F
:100426000130031788000A30890001300313850064
:1004360018308600803087008312850187011930C5
:100446008316990018158121121092101214921019
:10045600F930831692003221121092101214921063
:10046600F93083169200FA202D202520C50145215A
:10047600C501A8200930C5007D207008C1000B30D9
:10048600C5007D207008C2004108F200F301700823
:100496007207BF0073080318013EC000C00CBF0CF2
:1004A600C0130A30BF070318C00AB101B2010130F8
:1004B600B300B101283031020318892A3208003A04
:1004C600031D6B2AC5017D207008AB007108AC00C6
:1004D6000930C5007D207008C10000000000000042
:1004E600000000000B30C5007D207008C20000002F
:1004F60000000000000000004108AD070318AE0A26
:100506004208AF070318B00AB10A5D2A3708013A54
:10051600031D942A2B08C50045212B08C500A820D9
:10052600B7012830F400F5012D08F0002E08F1007F
:1005360060207008AD007108AE002830F400F501A7
:100546002F08F0003008F10060207008AF00710835
:10055600B0002E084002031DB22A2D083F02FF30CC
:1005660003180030F30071084002031DBC2A70080E
:100576003F02FF3003180030F20072087304F000E7
:100586000319DF2A2E083002031DCB2A2D082F025D
:100596000318D62A86102B08C500452106152B08F8
:1005A600C500A820DE2A86142B08C50045210611A1
:1005B6002B08C500A820E32AC5014521C501A820AE
:1005C600B80A0319B90A3908003C031DEC2A380891
:1005D600C83C03180E2B7330C300C4014330C5005A
:1005E600E4202D08C5003A30C60000213A30C50087
:1005F600E4207730C300C4014330C500E4202F084F
:10060600C5003A30C60000213A30C500E420023069
:0A0616008506B801B9015C2A0F2B1C
:04400E00F22C000789
:00000001FF
