:020000002F29A6
:10000800FF00030E8301A4000A08A3008A017008F8
:10001800A2007108A1007208A000F1010C1C1628AA
:100028000130F1007108013A031D67283908003AC8
:10003800031D30283C083A05B7003B083D05B800C9
:10004800371828280710292807140130B9001F304D
:100058008E00FF308F0066283908013A031D4228B8
:100068003E08FC3EB500FE300318013EB6003508D8
:100078008E0036088F000230B900662807103E0847
:10008800FA3CB5000030031C013EFF3CB6003508C1
:100098008E0036088F003C08F1003D08F200F10D93
:1000A800F20D71107108BC007208BD007208043AA4
:1000B800031D602800307106031D65280130BC004F
:1000C800BD01B9010C108C1E862822217008B400CD
:1000D8002F08013A031D7A28B7303406031D772804
:1000E8000230AF0079280130AF0083282F08023A88
:1000F800031D83283408BE000130AF0083288C120A
:1001080083168C1683122208F0002108F1002008BB
:10011800F20023088A00240E8300FF0E7F0E0900D8
:100128000E3083120313FD00FD0B98280000080011
:100138008316031398169030831298008316871736
:10014800071383128C1EAB281A08F000A528080094
:100158008312031385010330FB008A30FC005530FD
:10016800FD00FD0BB528FC0BB528FB0BB5280000DE
:100178000000FF3085000330FB008A30FC0055305A
:10018800FD00FD0BC528FC0BC528FB0BC52800008E
:10019800000085010330FB008A30FC005530FD006B
:1001A800FD0BD428FC0BD428FB0BD428000000003E
:1001B800FF3085000330FB008A30FC005530FD001D
:1001C800FD0BE428FC0BE428FB0BE42800000000EE
:0401D8008501080095
:1001DC003C30831203139F05C0309F003F08F00092
:1001EC00F00D7010F00D701070089F0483169F179F
:1001FC0083121F1494209F149F1C062900000229AF
:10020C001F101E08F100F00183161E0870048312E3
:10021C00C0007108C1000030C1044008F000410862
:04022C00F1000800D5
:100230008316031398181E290000182983123F08FB
:040240009900080019
:10024400831203131A08F200981C2A29181218168C
:0A0254007208F1007108F0000800C4
:10025E007530831603138F0045308100C0308B003C
:10026E008C01033085008601803087000330031730
:10027E0088008901FF3083120313BE0031309000D5
:10028E0083160C14FF3083128E00FF308F00B901DD
:10029E00FF30BA00FF30BB000130BC00BD01831639
:1002AE008C1683128C0133308316990018159C20FE
:1002BE0085018601870181010530AC00AB01A901E2
:1002CE00AA01B001B1010130AF00AC20A901AA0111
:1002DE00B001B101AD01AE01AD01AE010130AB0017
:1002EE00BF01EE207008A7007108A8000130BF0002
:1002FE00EE207008A5007108A6002708A907280897
:10030E000318013EAA077008AD0771080318013ED5
:10031E00AE072B08403A03199629AB0A7729063007
:10032E00F0002908B0002A08B10070080319A429AA
:10033E00B10CB00CB113FF3E9D290630F0002D0814
:10034E00F3002E08F40070080319B229F40CF30C14
:10035E00F413FF3EAB297308AD007408AE007308AA
:10036E00F0007408F100F10CF00CF113F10CF00C2C
:10037E00F113700886007008BF0018210330FB00CF
:10038E000830FC007730FD00FD0BCB29FC0BCB2990
:08039E00FB0BCB296D29D229CC
:04400E00D42C0007A7
:00000001FF
