:0A000000DB280000000000000028CB
:0A000A000730FD00FD0B0728080079
:10001400831603139818102800000A288312320844
:040024009900080037
:1000280083120313F8010830FC00700DF80D7408F2
:10003800F80203182128F8070310F00DFC0B192803
:020048000800AE
:10004A000030831203138C1A0130F1007108F0009A
:02005A0008009C
:10005C008316031398169030831298008316871713
:10006C00071383128C1E3D281A08F000372808004D
:10007C00831203131A08F200981C4628181218163B
:0A008C007208F1007108F00008008E
:10009600C030831203139F002E08F000F00D70107D
:1000A600F00D701070089F0483169F1783121F149B
:1000B60005209F149F1C612800005D281F101E0844
:1000C600F300F4017308F100F00183161E087004B2
:1000D6008312AF007108B0000030B0042F08F000A2
:0600E6003008F1000800E3
:1000EC0083120313AF012E0884000008B0003008FF
:1000FC00003A03198B283008B2000A20AF0A2F08E7
:0C010C002E0784000008B0007D280800C9
:1001180083120313F801F9011030FC00710DF80D7A
:10012800F90D7408F8027508031C750FF902031815
:10013800A4287408F80775080318750FF907031041
:0A014800F00DF10DFC0B92280800E9
:10015200831203132F08840020308000840A203089
:100162008000840A20308000840A8001840A0230E0
:10017200B00030082F07F0007008B1000A30F40018
:100182002E08F00014207808F0003030F007310813
:100192008400700880000A30F4002E08F000142059
:1001A2007008AE007008003A031DD828DA28B003A0
:0401B200BA2808005F
:1001B60001308316031788000230890001300313CB
:1001C60085002830860080308700831285018601ED
:1001D600870119308316990018152E200930AE00B4
:1001E6004B207008A200AE014B207008A100A001B0
:1001F60025207008013A031D0C293E207008A30033
:100206007008303A031D0A29851506100C29851138
:100216000614A001AA01AB016430200203182229AA
:100226000930AE004B207008A200AE014B207008CA
:10023600A1002208AA070318AB0AA00A0F296430F6
:10024600F400F5012A08F0002B08F1008C20700854
:10025600AA007108AB00861E3229A9013429643030
:10026600A9006830AC00AD012C30AE0076202A081B
:10027600AE002430AF00A9202430AE0076207030C6
:10028600AC00AD012C30AE0076202908AE0024303B
:10029600AF00A9202430AE00762085140230FB0082
:1002A6004530FC00A930FD00FD0B5729FC0B5729F2
:1002B600FB0B57290000000085100230FB0045307B
:1002C600FC00A930FD00FD0B6629FC0B6629FB0B23
:0A02D600662900000000FB286F29D4
:04400E00F22C000789
:00000001FF
