:0A0000000A2A000000000000BF29DA
:0A000A000730FD00FD0B0728080079
:1000140083120313FB01FA01F9018030F800F10C9B
:10002400F00C031C1E287408F90775080318750FD3
:10003400FA070318FB0A0310F01F26287408FA07AE
:1000440075080318750FFB07FB0CFA0CF90CF80C78
:10005400031C11287B08F3007A08F2007908F100E8
:060064007808F00008001E
:10006A0083120313F801F9011030FC00710DF80D29
:10007A00F90D7408F8027508031C750FF9020318C4
:10008A004D287408F80775080318750FF907031047
:0A009A00F00DF10DFC0B3B280800EF
:1000A40083160313981858280000522883123A081C
:0400B40099000800A7
:0C00B800831203139B011D129D1208000F
:1000C400831603130711831212150C3097040800CA
:1000D400831603138710831212150C309D04080035
:1000E400831603131208F000F101F00A0319F10A50
:1000F40083123408F400F5010A200630F200700877
:10010400F4007108F500720803198D28F50CF40C3D
:10011400F513FF3E86280430F1007408F0007108DE
:1001240003199828F00D7010FF3E922883120313D0
:1001340030307005F3007408F0007508F100F10C1C
:10014400F00CF113F10CF00CF11370089B000F305C
:080154009D0573089D040800DD
:10015C00C030831203139F003408F000F00D7010B0
:10016C00F00D701070089F0483169F1783121F14D4
:10017C0005209F149F1CC4280000C0281F101E08B7
:10018C00F300F4017308F100F00183161E087004EB
:10019C008312B5007108B6000030B6043508F000C3
:0601AC003608F100080016
:0C01B20083120313950117129712080026
:1001BE000030831203138C1A0130F1007108F00025
:0201CE00080027
:1001D000831603139816903083129800831687179E
:1001E000071383128C1EF7281A08F000F128080064
:1001F000013083120313B7000430B8003508003C07
:10020000031D04293408093C03180729B70A3508D7
:10021000003C031D0D293408633C03181029B70A5C
:100220003508033C031D16293408E73C0318192937
:10023000B70A3508273C031D1F2934080F3C031853
:100240002229B70A3608840020308000840A203032
:100250008000840A20308000840A20308000840AD4
:1002600020308000840A8001840A3708003C03188B
:100270005F2938083607F0007008B9000A30F4002A
:10028000F5013408F0003508F10035207808F00059
:100290007908F1003030F0073908840070088000D8
:1002A000B8030A30F400F5013408F0003508F10015
:1002B00035207008B4007108B500B703352908006F
:1002C000831603131208F000F101F00A0319F10A72
:1002D00083123408F400F5010A200630F200700899
:1002E000F4007108F500720803197B29F50CF40C71
:1002F000F513FF3E74290430F1007408F000710812
:1003000003198629F00D7010FF3E80298312031314
:1003100030307005F3007408F0007508F100F10C3E
:10032000F00CF113F10CF00CF113700895000F3084
:0803300097057308970408000B
:1003380083120313B501340884000008B600360898
:10034800003A0319B1293608BA005220B50A35080F
:0C035800340784000008B600A329080048
:10036400831203131A08F200981CBA2918121816DB
:0A0374007208F1007108F0000800A3
:10037E00FF00030E8301AC000A08AB008A0170086F
:10038E00A5007108A4007208A3007B08A2007C08D7
:10039E00A1007D08A000DF207008013A031DF72997
:1003AE0005150230FB008630FC009930FD00FD0B78
:1003BE00DE29FC0BDE29FB0BDE2905110230FB00CA
:1003CE008630FC009930FD00FD0BEB29FC0BEB2970
:1003DE00FB0BEB29B2217008A6007008A900AA0138
:1003EE002508F0002408F1002308F2002208FB0083
:1003FE002108FC002008FD002B088A002C0E83002B
:06040E00FF0E7F0E090045
:100414008030831603138100C0308B0020308C00A1
:10042400073003178800890107300313850086010C
:100434008030870083128501870119308316990063
:100444001815E8201210921012149210F930831625
:100454009200D9201210921012149210F9308316BF
:1004640092005C2062206A20B4016021B4017220F1
:10047400B401AE207008A9007108AA00AA0CA90C46
:10048400AA13AA0CA90CAA13061486100730FC00A0
:100494007D30FD00FD0B4C2AFC0B4C2A0130B400CE
:1004A400AE200A30F400F50135207008A700710869
:1004B400A800290885007108003C031D632A700800
:1004C400053C0318AC2A2808003C031D6B2A2708A6
:1004D400283C0318862A861428302702F0000030AE
:1004E400031C013E2802F1000330F400F5010A2048
:1004F4007008A9007108AA007008B40060210615EC
:100504002908B4007220AB2A00302802031D8C2A6B
:10051400243027020318A72A86102708243CF00059
:100524002808031C013EF101F1020330F400F50137
:100534000A207008A9007108AA007008B40060219C
:1005440006112908B4007220AB2AB4016021B40159
:100554007220B02AB4016021B40172202A30B200A2
:10056400B3013230B4009C212708B4002808B50038
:100574002D30B600F8202D30B4009C213A2AC12A2F
:04400E00F22C000789
:00000001FF
