:10000000B528FF3FFF3FFF3FFF00030E8301B30012
:100010000408B2000A08B4008A017208BF0071081F
:10002000BE007008BD0000308C1A0130F20072086A
:10003000013A031D4B2874227008013A031D482819
:100040003E227008A0002108013A031D2A28A101C0
:100050002008A2002108023A031D3828A101200827
:10006000013A031D36280612851038280616851415
:100070002108003A031D48282008A03A031D422801
:100080000130A1002008B03A031D48280230A10029
:100090008C1283168C160313831600308B180130D4
:1000A000F2007208013A031D992883122208003CCD
:1000B0000318962886122208013A031D6228F030A0
:1000C000810093282208023A031D6928E13081004B
:1000D00093282208033A031D7028D1308100932809
:1000E0002208043A031D7728C13081009328220892
:1000F000053A031D7E28B230810093282208063A73
:10010000031D8528A230810093282208073A031D89
:100110008C289230810093282208083A031D9328E6
:100120008330810093280B118B16972886168B102D
:100130000B160313831200300B190130F200720802
:10014000013A031DA62886160B118B123F08F200F8
:100150003E08F1003D08F00034088A0032088400AF
:10016000330E8300FF0E7F0E0900C5300313831684
:1001700081008B0103178801023089000313850178
:10018000093086008030870083128501860187014F
:10019000A301A201A401A501A601A701A80119308C
:1001A00083169900181529228230FB00FF30FA00CF
:1001B000FB0BDB28DE28FA0BDB28D8288730FA0077
:1001C000FA0BE0280000D0308B00203083168C0022
:1001D00083128C018230FB00FF30FA00FB0BF12808
:1001E000F428FA0BF128EE288730FA00FA0BF628EB
:1001F0000000A1010930B8009A217008A900710817
:10020000AA006430F400F501CB21E630F400F501DA
:10021000F6217008AB007108AC00A40A0330FB00A3
:10022000FF30FA00FB0B15291829FA0B15291229A2
:100230009630FA00FA0B1A297008A50771080318FE
:10024000013FA607C8302402031C27292829FA28C1
:10025000C830F400F5012508F0002608F100F62169
:100260007008A7007108A8007008B8002D30B90008
:1002700068217430B600B7013630B80013222D3033
:10028000B8001322A401A501A601A701A80103300B
:10029000FC00FF30FB00FF30FA00FC0B502957290F
:1002A000FB0B53295629FA0B532950294D298C3021
:1002B000FB00FF30FA00FB0B5E296129FA0B5E2977
:1002C0005B29A130FA00FA0B63290000FA2867299C
:1002D000013003138312BA003808093C031871294E
:1002E000BA0A3808633C03187629BA0A3908840028
:1002F00020308000840A8000840A8000840A800103
:1003000084033A08003C031899290A30F40038089D
:10031000F00063227808F00030307007800084031A
:100320000A30F4003808F00063227008B800BA03FD
:1003300081290800C030031383129F003808F000A1
:10034000F00D7010F00D701070089F0483169F1749
:1003500083121F1481229F141F08F2000030F2182C
:100360000130F2007208003A031DAC291F101E086C
:10037000F200F3017208F300F20183161E08720402
:100380008312B9007308BA000030BA043908F000CB
:100390003A08F100080003138312FB01FA01F90186
:1003A0008030F800F10CF00C031CDF297408F90709
:1003B00075080318750FFA070318FB0A0310F01FDE
:1003C000E7297408FA0775080318750FFB07FB0C7B
:1003D000FA0CF90CF80C031CD2297B08F3007A08FC
:1003E000F2007908F1007808F00008000313831286
:1003F000F801F9011030FC00710DF80DF90D7408C9
:10040000F8027508031C750FF90203180E2A740808
:10041000F80775080318750FF9070310F00DF10DB3
:10042000FC0BFC29080003138312B901380884006F
:100430000008BA003A08003A0319282A3A08BC0012
:100440005122B90A3908380784000008BA001A2A6C
:1004500008000313831698169030831298008316B1
:100460008717071383120C08F1000030F11A0130CE
:10047000F1007108013A0319322A080003138312AC
:100480001A08B5001808F1000030F1180130F10029
:100490007108013A031D4E2A181218163508F0008B
:1004A0000800031383161808F1000030F11801301A
:1004B000F1007108003A031D5F2A0000512A8312DF
:1004C0003C089900080003138312F8010830FC006F
:1004D000700DF80D7408F8020318702AF80703105D
:1004E000F00DFC0B682A0800031383120C08F100BE
:1004F0000030F11A0130F1007108B5003508F00044
:100500000800073003138312FA00FA0B852A08004B
:04400E00D420FFFFBC
:00000001FF
