:100000005B28FF3FFF3FFF3FFF00030E8301AB0074
:100010000408AA000A08AC008A017108B30070083D
:10002000B20000308B180130F2007208013A031D53
:100030002D282008013A031D22288101A0018316E2
:1000400001132A2883120108A10081010130A000B8
:10005000831601178B100B160B1103138316003038
:1000600083128C1A0130F2007208013A031D4B28EA
:10007000BA217008013A031D482884217008A200A3
:100080002308003A031D48282208A400A301482899
:100090008C1283168C160313831683123308F10017
:1000A0003208F0002C088A002A0884002B0E8300F6
:1000B000FF0E7F0E0900C630031383168100C03087
:1000C0008B0020308C0003178801890103138312F1
:1000D00081018316850101308600803087008312FC
:1000E00085018601870119308316990018156F2143
:1000F0000130A000A101A401A501A301A201F020EB
:100100000B16C7214130FB00FF30FA00FB0B89289A
:100110008C28FA0B89288628C330FA00FA0B8E281F
:1001200000002108F000F1010730F4007408031901
:100130009E28F00DF10D7010FF3F97283A30F40023
:10014000F50152217008A6007108A7007008163C3E
:10015000F0007108031C013F003CF1007008A5008D
:10016000700885002408003A0319BE2824082502D7
:10017000031CBC288612BD288616BF288612413073
:10018000FB00FF30FA00FB0BC628C928FA0BC62873
:10019000C328C330FA00FA0BCB2800000A30F40061
:1001A0002508F000A9210A30F400A9217808F00000
:1001B00030307007A8000A30F4002508F000A921AB
:1001C0007808F00030307007A9007330AE00972136
:1001D0002808AE0097212908AE0097218128EF2832
:1001E00001300313831285000230FC00FF30FB0056
:1001F000FF30FA00FC0BFD280429FB0B0029032922
:10020000FA0B0029FD28FA280630FB00FF30FA001F
:10021000FB0B0B290E29FA0B0B2908290A30FA00CF
:10022000FA0B102985010230FC00FF30FB00FF3083
:10023000FA00FC0B1C292329FB0B1F292229FA0B8E
:100240001F291C2919290630FB00FF30FA00FB0B7F
:100250002A292D29FA0B2A2927290A30FA00FA0B14
:100260002F29013085000230FC00FF30FB00FF30F9
:10027000FA00FC0B3C294329FB0B3F294229FA0BCE
:100280003F293C2939290630FB00FF30FA00FB0BDF
:100290004A294D29FA0B4A2947290A30FA00FA0B54
:1002A0004F29080003138312F801F9011030FC00F4
:1002B000710DF80DF90D7408F8027508031C750F1F
:1002C000F90203186A297408F80775080318750FEE
:1002D000F9070310F00DF10DFC0B5829080003136A
:1002E0008316981690308312980083168717071389
:1002F00083120C08F1000030F11A0130F10071088E
:10030000013A031978290800031383121A08AD0073
:100310001808F1000030F1180130F1007108013ABD
:10032000031D9429181218162D08F0000800031355
:1003300083161808F1000030F1180130F10071083F
:10034000003A031DA5290000972983122E08990061
:10035000080003138312F8010830FC00700DF80D3B
:100360007408F8020318B629F8070310F00DFC0B07
:10037000AE290800031383120C08F1000030F11AB3
:100380000130F1007108AD002D08F00008000313E2
:1003900083128716CD2187120800103003138312B1
:1003A000FA00FA0BD12900000800FF3FFF3FFF3F92
:04400E00D420FFFFBC
:00000001FF
