:100000007729FF3FFF3FFF3FFF00030E8301BC0046
:100010000408BB000A08BD008A017108EE007008E0
:10002000ED0000308C1A0130F1007108013A031D17
:1000300027288A15E1218A117008013A031D272813
:100040008A1583218A117008A000700885008C121F
:1000500083168C1683126E08F1006D08F0003D08BF
:100060008A003B0884003C0E8300FF0E7F0E0900CF
:1000700003138312EB014308F0004408F100450824
:10008000F2004608F30092267008C8007108C90003
:100090007208CA007308CB00F0018A1573218A1117
:1000A0007008F4007108F5007208F6007308F70094
:1000B0004308F0004408F1004508F2004608F30048
:1000C0008A155C208A11FF3003180030F000700898
:1000D00003197D280030F0004B06031D79287008B5
:1000E0004A06031D792870084906031D7928480827
:1000F000003A031D7D28FF30EB0048088316A0005E
:10010000831249088316A10083124A088316A200AD
:1001100083124B088316A3005130A400B42383122A
:100120004808F0004908F1004A08F2004B08F300C3
:100130008A1510218A117008F4007108F500720800
:10014000F6007308F7004308F0004408F100450882
:10015000F2004608F3008A15EE218A110030F400FF
:100160005030F5004330F6008F30F7001E279226FE
:100170007008C8007108C9007208CA007308CB0073
:1001800080307306F40080307402031DD1280030E3
:100190007202031DD12800307102031DD1280030E6
:1001A00070020318ED28F001F101F201F301480893
:1001B000F0024908031C490FF1024A08031C4A0FC8
:1001C000F2024B08031C4B0FF3027008C8007108C1
:1001D000C9007208CA007308CB0048088316A00043
:1001E000831249088316A10083124A088316A200CD
:1001F00083124B088316A3005E30A400B42383123D
:10020000CC01CD01CE01CF016B080319102947089D
:100210008400470884002D3080000130CC00CD01DF
:100220005108D0005008203A031D2129CE0A031995
:10023000CF0A5130F0004E08700784000008D0004B
:1002400012295008003A03193C294C084707F000CE
:10025000700884007008840050088000CE0A0319DA
:10026000CF0ACC0A0319CD0A5130F0004E087007AE
:1002700084000008D00021294C084707F0007008CE
:100280008400700884002E308000CC0A0319CD0A47
:100290000630CE00CF016408D0005008003A0319A0
:1002A0006E295008203A031D57293030D0004C08E1
:1002B0004707F00070088400700884005008800030
:1002C000CE0A0319CF0ACC0A0319CD0A5E30F0001A
:1002D0004E08700784000008D0004D294C084707DD
:1002E000F0007008840070088400800108008030ED
:1002F000031383168100C0308B0020308C0003175D
:10030000880102308900031385010830860080309F
:1003100087008312850186018701A301A401A5013D
:10032000F0018A1573218A117008A6007108A700D0
:100330007208A8007308A900AA01AB01AC01AD01C5
:10034000AE017008AF007108B0007208B100730808
:10035000B200B30119308316990018158A155E2171
:100360008A118230FB00FF30FA00FB0BB829BB2951
:10037000FA0BB829B5298730FA00FA0BBD2900001D
:100380002308FA3C031CE3290930C3008A15DD2049
:100390008A117008B4007108B500A30A0330FB008D
:1003A000FF30FA00FB0BD529D829FA0BD529D22921
:1003B0009630FA00FA0BDA297008AC0771080318B6
:1003C000013FAD07842A2C08F0002D08F1008A15A2
:1003D00048218A117008BF007108C0007208C1006E
:1003E0007308C200FA30F0008A1573218A11700870
:1003F000F4007108F5007208F6007308F7003F0872
:10040000F0004008F1004108F2004208F3005225D4
:100410007008BF007108C0007208C1007308C200F4
:100420003F08A6004008A7004108A8004208A9000C
:100430006430F0008A1573218A113F08F4004008E7
:10044000F5004108F6004208F7001E277008BF00BB
:100450007108C0007208C1007308C200E630F000E5
:100460008A1573218A117008F4007108F50072086A
:10047000F6007308F7003F08F0004008F10041085B
:10048000F2004208F30052257008AF007108B00076
:100490007208B1007308B2007008C3007108C4008C
:1004A0007208C5007308C6003630C70038206630B1
:1004B000EC008A1596218A113630C3008A15322144
:1004C0008A110A30EC008A1596218A110D30EC0051
:1004D0008A1596218A11A301AC01AD01AA01AB01D5
:1004E000F0018A1573218A117008A6007108A7000F
:1004F0007208A8007308A9007008AF007108B00066
:100500007208B1007308B200C029852A0313831250
:100510007408F8027508031C750FF9027608031CAD
:10052000760FFA027708031C770FFB02F30D0730F2
:10053000FC00730DF80DF90DFA0DFB0D7408731C1A
:10054000AF2AF8027508031C750FF9027608031C20
:10055000760FFA027708031C770FFB02BC2AF80714
:1005600075080318750FF90776080318760FFA0750
:1005700077080318770FFB07F30DFC0B992A720D10
:10058000F80DF90DFA0DFB0D7408731CD52AF8024D
:100590007508031C750FF9027608031C760FFA0222
:1005A0007708031C770FFB02E22AF8077508031887
:1005B000750FF90776080318760FFA0777080318FE
:1005C000770FFB07F20D0730FC00720DF80DF90DE7
:1005D000FA0DFB0D7408721CFB2AF8027508031C47
:1005E000750FF9027608031C760FFA027708031CD0
:1005F000770FFB02082BF80775080318750FF9072A
:1006000076080318760FFA0777080318770FFB07A9
:10061000F20DFC0BE52A710DF80DF90DFA0DFB0D2D
:100620007408721C212BF8027508031C750FF9025F
:100630007608031C760FFA027708031C770FFB027B
:100640002E2BF80775080318750FF907760803189D
:10065000760FFA0777080318770FFB07F10D0730BD
:10066000FC00710DF80DF90DFA0DFB0D7408711CED
:10067000472BF8027508031C750FF9027608031C56
:10068000760FFA027708031C770FFB02542BF8074A
:1006900075080318750FF90776080318760FFA071F
:1006A00077080318770FFB07F10DFC0B312B700D4A
:1006B000F80DF90DFA0DFB0D7408711C6D2BF80285
:1006C0007508031C750FF9027608031C760FFA02F1
:1006D0007708031C770FFB027A2BF80775080318BD
:1006E000750FF90776080318760FFA0777080318CD
:1006F000770FFB07F00D0730FC00700DF80DF90DBA
:10070000FA0DFB0D7408701C932BF8027508031C7E
:10071000750FF9027608031C760FFA027708031C9E
:10072000770FFB02A02BF80775080318750FF90760
:1007300076080318760FFA0777080318770FFB0778
:10074000F00DFC0B7D2B7018B32B7408F80775089F
:100750000318750FF90776080318760FFA0777085C
:100760000318770FFB070800031383162308803A4A
:10077000031DC42B2208003A031DC42B2108003A94
:10078000031DC42B2008003A031DEB2B2408840012
:100790002D308000840A32308000840A313080009D
:1007A000840A34308000840A37308000840A343070
:1007B0008000840A38308000840A33308000840A44
:1007C00036308000840A34308000840A383080005B
:1007D000840A8001A92CA60180302306F000803015
:1007E0007002031DFD2B00302202031DFD2B003083
:1007F0002102031DFD2B0030200203181B2CFF30AB
:10080000A600F001F101F201F3012008F002210835
:10081000031C210FF1022208031C220FF2022308FD
:10082000031C230FF3027008A0007108A1007208D6
:10083000A2007308A3000130A5002008A70021082A
:10084000A8002208A9002308AA000030F0002A0608
:10085000031D342C70082906031D342C700828064B
:10086000031D342C2708003A03194F2C0A30F400DA
:10087000F501F601F7012708F0002808F100290822
:10088000F2002A08F300F62570088316A700710805
:10089000A8007208A9007308AA00A50A252CA503C0
:1008A0002408840020308000840A8000840A8000AC
:1008B000840A8000840A8000840A8000840A800000
:1008C000840A8000840A8000840A8000840A303010
:1008D0008000840A800184032508003C0318A42CAE
:1008E0000A30F400F501F601F7012008F0002108B4
:1008F000F1002208F2002308F300F6257808F00042
:100900007908F1007A08F2007B08F30030307007B4
:10091000800084030A30F400F501F601F701831624
:100920002008F0002108F1002208F2002308F3005B
:10093000F62570088316A0007108A1007208A200B5
:100940007308A300A5036C2C26080319A92C2D30CD
:10095000800008000313831272087606A100F801D4
:10096000F90173087702031CCD2C7708FD0073088A
:10097000F7007D08F3007608FD007208F6007D0898
:10098000F2007508FD007108F5007D08F10074089B
:10099000FD007008F4007D08F000770803194E2D63
:1009A0007208FA00F217F61777087302F7000319B6
:1009B000002D08307702031CF62CF7007408F900AC
:1009C0007508F4007608F500F60108307702031C7C
:1009D000F62CF7007408F9007508F400F5010830EA
:1009E0007702031CF62C7A08F2004E2D77080319C3
:1009F000002D0310F60CF50CF40CF90CF70BF92C88
:100A0000A11F0D2DF909F409F509F609F90A0319D1
:100A1000F40A0319F50A0319F60A7908F8077408A5
:100A20000318740FF00775080318750FF10776089F
:100A30000318760FF207A11B262D031C362DF20C8E
:100A4000F10CF00CF80CF30F362D482D03183C2D4B
:100A5000F809F009F109F209F80A0319F00A031973
:100A6000F10A0319F20A8030FA06422D0130FC0027
:100A70008A1500208A11502D0230FC008A150020B2
:100A80008A11502D0430FC008A15AC208A11502D9B
:100A90000830FC008A15B7218A11502D0030FC0067
:100AA000000008000313831277080319E12D73086F
:100AB0000319E62D720876068039FA00F217F61748
:100AC000A1017208F8007108FC007008FD007408AC
:100AD000FD027508031C750FFC027608031C760FD7
:100AE000F802F801FC01FD01031C7D2D0310F20C3E
:100AF000F10CF00CF80C0130A1007708F302031C94
:100B0000872D7E302107F3070318EB2D8C2D7E30C7
:100B10002107F307031CF02D1830FA07FD0DFC0D1B
:100B2000F80DF00DF10DF20DA10D7408F00275082D
:100B3000031C750FF1027608031C760FF202760D86
:100B4000A104211CA52D7D14B02D7408F007750893
:100B50000318750FF10776080318760AF2077D105F
:100B6000FA031F307A05031D8E2D7B1B7D1CD72DAC
:100B70000310F00DF10DF20DA10D7408F0027508CF
:100B8000031C750FF1027608031C760FF202760D36
:100B900021040139FD070318FC0A0319F80A031D93
:100BA000D72DF80CFC0CFD0CF30A0319EB2DFA1FE2
:100BB000F8137808F2007C08F1007D08F00000309E
:100BC000F42D01308A1505228A11F42D02308A1580
:100BD000F6218A11F42D04308A15B7218A11F42DDB
:100BE00008308A15C5218A110000080003138312FA
:100BF000FC01F71BFC0AFD01FB01FA01F901F801F8
:100C0000730872047104700403198A2E730877063E
:100C1000A200A21BFD09F71F182EF409F509F60919
:100C2000F709F40A0319F50A0319F60A0319F70A72
:100C3000F31F252EF009F109F209F309F00A03194F
:100C4000F10A0319F20A0319F30A73087704A200E0
:100C5000A21B462E8622FC1B632EFD1F8A2EF00946
:100C6000F109F209F309F00A0319F10A0319F20A6A
:100C70000319F30AF809F909FA09FB09F80A031933
:100C8000F90A0319FA0A0319FB0A8A2EF71F5D2EC7
:100C9000F31B572E7308FB007208FA007108F90065
:100CA0007008F800F301F201F101F0012D2EF301BB
:100CB000F201F101F001F00A0034F309F209F1093F
:100CC000F009FC172A2EF80A0319F90A0319FA0A7F
:100CD0000319FB0A74087802031D2D2E750879028A
:100CE000031D2D2E76087A02031D2D2E77087B0218
:100CF000031D2D2EFB01FA01F901F801F00A031979
:100D0000F10A0319F20A0319F30AF31F2D2EA201A7
:100D10002216FF34A2017C1C902E8A15D3218A1141
:100D2000003F080003138312FB01FC01F801730864
:100D300003190A2F7208FA00F2179E30F302F31F0C
:100D4000FA2EF309F30A08307302031CCF2EF300C6
:100D5000F80D7008F8007108F0007208F100F20157
:100D600008307302031CCF2EF300F80D7008F80052
:100D70007108F000F10108307302031CCF2EF3005C
:100D8000F80D7008F800F00108307302031CCF2E34
:100D9000F300F80DF8017308031D0310D92E730832
:100DA0000319D92E0310F20CF10CF00CF80CF30B14
:100DB000D22E7B1B781CE72E031CE72EF80A0319A2
:100DC000F00A0319F10A0319F20AF21B072FFA1F9E
:100DD0000A2FF209F109F009F809F80A0319F00AD3
:100DE0000319F10A0319F20A0A2FF201F101F001C5
:100DF000F8010A2F7B14FB1F0D2FF201FA1F0D2F94
:100E0000F200F100F000F800FA0DF20C0D2F0130A5
:100E1000FC000F2F0030FC000F2FFF30FC00FC08FF
:100E20000319152F8A15A8218A117208F300710879
:100E3000F2007008F1007808F00008000313831234
:100E4000FB017308031D77080319752F72087606D6
:100E5000FA007708F3077E30031C322FF3020318E1
:100E60007A2F352FF302031C7F2F7208F8007108C8
:100E7000FC007008FD00F817F6170310F201F101ED
:100E8000F0011830A1007D1C4F2F7408F007750881
:100E90000318750FF10776080318760FF207F20CA6
:100EA000F10CF00CF80CFC0CFD0C0310A10B432F03
:100EB000F21B5F2FF80DF00DF10DF20DF3037B1B0C
:100EC000701C712FF81F712FF00A0319F10A031912
:100ED000F20A031D712FF20CF10CF00CF30A031946
:100EE0007A2FFA1FF2130030832F01308A15F62172
:100EF0008A11832F02308A15B7218A11832F04307B
:100F00008A15C5218A1100000800073003138312D7
:100F1000FA00FA0B892F0800FF3FFF3FFF3FFF3F1A
:100F2000FF3FFF3FFF3FFF3FFF3FFF3FFF3FFF3FD1
:100F3000FF3FFF3FFF3FFF3FFF3FFF3FFF3FFF3FC1
:100F4000FF3FFF3FFF3FFF3FFF3FFF3FFF3FFF3FB1
:100F5000FF3FFF3FFF3FFF3FFF3FFF3FFF3FFF3FA1
:100F6000FF3FFF3FFF3FFF3FFF3FFF3FFF3FFF3F91
:100F7000FF3FFF3FFF3FFF3FFF3FFF3FFF3FFF3F81
:100F8000FF3FFF3FFF3FFF3FFF3FFF3FFF3FFF3F71
:100F9000FF3FFF3FFF3FFF3FFF3FFF3FFF3FFF3F61
:100FA000FF3FFF3FFF3FFF3FFF3FFF3FFF3FFF3F51
:100FB000FF3FFF3FFF3FFF3FFF3FFF3FFF3FFF3F41
:100FC000FF3FFF3FFF3FFF3FFF3FFF3FFF3FFF3F31
:100FD000FF3FFF3FFF3FFF3FFF3FFF3FFF3FFF3F21
:100FE000FF3FFF3FFF3FFF3FFF3FFF3FFF3FFF3F11
:100FF000FF3FFF3FFF3FFF3FFF3FFF3FFF3FFF3F01
:10100000031383127C183828FC1809287C195728E8
:101010000228A1017208031D29287108F200700836
:10102000F1007808F000F801A1157208031D2928C5
:101030007108F2007008F100F001A1112116720888
:10104000031D29287108F200F101A1157208031986
:101050004B282108F302031D031C4F280310F21B29
:101060003828F80DF00DF10DF20DF30B2F284F2855
:101070007B1B701C5328F81F5328F00A0319F10A30
:101080000319F20A031D5328F20CF10CF00CF30AB9
:101090000319572853280130FC00F6215A28023042
:1010A000FC00C5215A280430FC00FF215A280830D2
:1010B000FC00B7210000080003138312FA01730833
:1010C000031D7A147708031DFA147A080319A82857
:1010D000033A031973287A187028F61FA628A42843
:1010E000F21FA428A62872088039FA00F2137608A5
:1010F0008039F6137A06031981287A080319A4287F
:10110000A6287708730203198828031C9C28A028A6
:101110007608720203198F28031C9C28A0287508E2
:10112000710203199628031C9C28A02874087002D9
:101130000319A8280318A028FA080319A628A42828
:10114000FA080319A428A6280314080003100800AD
:10115000031403150800080003138312A101720889
:10116000031DC3287108F2007008F100F001A115F9
:101170007208031DC3287108F200F101A1112116A4
:1011800072080319D1282108F302031D031CD52876
:101190000310F21BD928F00DF10DF20DF30BC92845
:1011A000D5280130FC00F621DC280230FC00C521E6
:1011B000DC280430FC00FF210800C0300313831238
:1011C0009F004308F000F00D7010F00D70107008D3
:1011D0009F0483169F1783121F148A1185278A156F
:1011E0009F141F08F2000030F2180130F20072085C
:1011F000003A031DF1281F101E08F200F3017208C7
:10120000F300F20183161E0872048312C4007308EF
:10121000C5000030C5044408F0004508F10008008E
:10122000031383127008F8007108F0007208F100CF
:101230007308F200F301FB01FC019E30F300FA0198
:10124000F21F2E29F809F009F109F209F80A031929
:10125000F00A0319F10A0319F20AFA170230FC0026
:101260000020080003138312C4014308840000080F
:10127000C5004508003A031947294508EC009621A6
:10128000C40A4408430784000008C500392908003F
:10129000031383127008F8007108F000F101F201E5
:1012A000F301FB01FC019630F300FA017008F10034
:1012B0007808F000F801F201AC200800031383164F
:1012C000981690308312980083168717071383129D
:1012D0000C08F1000030F11A0130F1007108013AF8
:1012E000031967290800031383127008F800FB0133
:1012F000FC019E30F300FA01F201F101F00102302D
:10130000FC0000200800031383121A08BE0018080E
:10131000F1000030F1180130F1007108013A031DAD
:101320009329181218163E08F000080003138316BC
:101330001808F1000030F1180130F1007108003A8E
:10134000031DA4290000962983126C089900080047
:10135000031383127B14FB1FB529F201FA1FFF3020
:10136000F200F100F000FA0DF20CFF300800031358
:101370008312FB14FB1FC329FF30F300F200F100BE
:10138000F000FA0DF20CFF300800031383127B15F6
:10139000FB1FD1290130F300F201F101F001FA0D38
:1013A000F20CFF30080003138312FB09FA09F90954
:1013B000F809F80A0319F90A0319FA0A0319FB0ACA
:1013C0000800031383120C08F1000030F11A0130F9
:1013D000F1007108BE003E08F000080003138312FC
:1013E0008030F6068A11AA248A1508000313831296
:1013F000F201F101F001F801F301003008000313DC
:101400008312FA1FF2130030080003138312FB1536
:10141000FF300800FF3FFF3FFF3FFF3FFF3FFF3F21
:04400E00D420FFFFBC
:00000001FF
