:0A00000070290000000000004629EE
:08000A00FA1FF2130030080098
:10001200FB14FB1F1328FF30F300F200F100F00085
:08002200FA0DF20CFF3008009A
:10002A007B15FB1F1F280130F300F201F101F001DB
:08003A00FA0DF20CFF30080082
:0E004200F201F101F001F801F30100300800B5
:1000500083120313F8010830FC00700DF80D7408CA
:10006000F80203183528F8070310F00DFC0B2D28B3
:02007000080086
:100072007C186F28FC1840287C198E283928A0018A
:100082007208031D60287108F2007008F1007808F8
:10009200F000F801A0157208031D60287108F20033
:1000A2007008F100F001A01120167208031D6028EB
:1000B2007108F200F101A0157208031982282008C4
:1000C200F302031D031C86280310F21B6F28F80D90
:1000D200F00DF10DF20DF30B662886287B1B701CC8
:1000E2008A28F81F8A28F00A0319F10A0319F20A6A
:1000F200031D8A28F20CF10CF00CF30A03198E2866
:100102008A280130FC00212091280230FC001520B1
:1001120091280430FC00052091280830FC000920B9
:0401220000000800D1
:10012600831603139818992800009328831242080F
:040136009900080024
:10013A008316031398169030831298008316871734
:10014A00071383128C1EAC281A08F000A628080090
:10015A00831203137008F800FB01FC019E30F300C0
:10016A00FA01F201F101F0010230FC003920080025
:10017A0083120313FB01FA01F9018030F800F10C34
:10018A00F00C031CD1287408F90775080318750FB9
:10019A00FA070318FB0A0310F01FD9287408FA0794
:1001AA0075080318750FFB07FB0CFA0CF90CF80C11
:1001BA00031CC4287B08F3007A08F2007908F100CE
:0601CA007808F0000800B7
:1001D000831203133F08840020308000840A2030FB
:1001E0008000840A20308000840A8001840A023062
:1001F000C00040083F07F0007008C1000A30F4005A
:100200003E08F00028207808F0003030F007410860
:100210008400700880000A30F4003E08F0002820B6
:100220007008BE007008003A031D17291929C00381
:04023000F9280800A1
:1002340083120313BF013E0884000008C000400875
:10024400003A03192F294008C2009320BF0A3F082F
:0C0254003E0784000008C00021290800BB
:100260000030831203138C1A0130F1007108F00082
:02027000080084
:10027200831203131A08F200981C41291812181647
:0A0282007208F1007108F000080096
:10028C00FF00030E8301B2000A08B3008A01700854
:10029C00A3007108A2007208A10030217008013A75
:1002AC00031D5E2939217008B4007008B000B1013B
:1002BC008B1C6329A80A8B100B162308F00022084C
:1002CC00F1002108F20033088A00320E8300FF0E81
:0402DC007F0E090088
:1002E0007530831603138F0047308100C0308B00B8
:1002F00020308C000130031788008901013003137E
:1003000085000130860080308700831285018701D7
:1003100033308316990018159D20BB01BC01BD0127
:100320000130BA00AB01AC01AD01AE01AF01F0018B
:10033000AD207008A4007108A5007208A60073081B
:10034000A700A8013008F0003108F1007130F40076
:10035000F501BD207008A9007108AA0029088500D0
:100360002A08B5003518B6298612B7298616B51899
:10037000BB290612BC290616A8010B160330FB0088
:100380000830FC007730FD00FD0BC429FC0BC429AC
:10039000FB0BC4290330FB000830FC007730FD0064
:1003A000FD0BD029FC0BD029FB0BD0290330FB001F
:1003B0000830FC007730FD00FD0BDC29FC0BDC294C
:1003C000FB0BDC290B126630C20093202808BE000C
:1003D0003630BF00E8203630BE001A21B901A2290C
:0203E000F02902
:04400E00D42F0007A4
:00000001FF
