:0A000000322A00000000000067290A
:10000A0083120313FB01FA01F9018030F800F10CA5
:10001A00F00C031C19287408F90775080318750FE2
:10002A00FA070318FB0A0310F01F21287408FA07BD
:10003A0075080318750FFB07FB0CFA0CF90CF80C82
:10004A00031C0C287B08F3007A08F2007908F100F7
:06005A007808F000080028
:1000600083120313F801F9011030FC00710DF80D33
:10007000F90D7408F8027508031C750FF9020318CE
:1000800048287408F80775080318750FF907031056
:0A009000F00DF10DFC0B36280800FE
:10009A00831603131208F000F101F00A0319F10A9A
:1000AA0083123908F400F50105200630F2007008C1
:1000BA00F4007108F500720803196828F50CF40CAD
:1000CA00F513FF3E61280430F1007408F00071084E
:1000DA0003197328F00D7010FF3E6D288312031365
:1000EA0030307005F3007408F0007508F100F10C67
:1000FA00F00CF113F10CF00CF113700895000F30AD
:08010A00970573089704080033
:10011200831603138710831212150C309D040800F6
:10012200831603130711831212150C30970408006B
:10013200831603131208F000F101F00A0319F10A01
:1001420083123908F400F50105200630F200700828
:10015200F4007108F50072080319B428F50CF40CC8
:10016200F513FF3EAD280430F1007408F000710869
:100172000319BF28F00D7010FF3EB9288312031334
:1001820030307005F3007408F0007508F100F10CCE
:10019200F00CF113F10CF00CF11370089B000F300E
:0801A2009D0573089D0408008F
:0C01AA008312031395011712971208002E
:1001B6008312031387162130FD00FD0BE0288712FA
:1001C6008230FC00DD30FD00FD0BE728FC0BE72844
:1001D600000000003708F0003808F1000F30F40086
:1001E600F50105207008B5007108B6001C30F40052
:0E01F600F50130207008B5007108B600080051
:0C020400831203139B011D129D120800C1
:10021000831203131A08F200981C102918121816DA
:0A0220007208F1007108F0000800F8
:10022A008312031385010330FB008A30FC0055302A
:10023A00FD00FD0B1E29FC0B1E29FB0B1E290000CD
:10024A000000FF3085000330FB008A30FC00553087
:10025A00FD00FD0B2E29FC0B2E29FB0B2E2900007D
:10026A00000085010330FB008A30FC005530FD0098
:10027A00FD0B3D29FC0B3D29FB0B3D29000000002D
:10028A00FF3085000330FB008A30FC005530FD004A
:10029A00FD0B4D29FC0B4D29FB0B4D2900000000DD
:0402AA0085010800C2
:1002AE0083160313981690308312980083168717BF
:1002BE00071383128C1E66291A08F00060290800A5
:1002CE00FF00030E8301A6000A08AC008A01700825
:1002DE00A2007108A1007208A000F1010B1D79297E
:1002EE000130F1007108013A031DBA293408003AB1
:1002FE00031D91292A082805B00029082B05B100F5
:10030E0030188B2986128C2986160130B400DA300B
:10031E008100B9293408013A031D9E2902302702B3
:10032E00F0007008FF3C81000230B400B92986123B
:10033E000230270281002A08F1002B08F200F10D8D
:10034E00F20D71107108AA007208AB007208023A21
:10035E00031DB32900307106031DB8290130AA0010
:10036E00AB01B4010B11F1018C1EBF290130F1005C
:10037E007108013A031D042A08217008B2003308DF
:10038E00013A031DD529AA303206031DD1290230A8
:10039E00B300D4290130B300AD01032A3308023A69
:1003AE00031DE429CC303206031DE0290330B300CF
:1003BE00E3290130B300AD01032A3308033A031DCC
:1003CE00ED293208AE000430B300032A3308043A94
:1003DE00031DF6293208AF000530B300032A330897
:1003EE00053A031D032ADD303206031D002A0130B3
:1003FE00AD000130B300032A8C128B1C252A230872
:10040E00013A031D122A8E018F0110148316011357
:10041E008312A301242A10108316011783120E08CB
:10042E00F000F1010F087007B70071080318013EC4
:10043E00B8008E018F010130A3008B102208F0004E
:10044E002108F1002008F2002C088A00260E8300F5
:06045E00FF0E7F0E0900F5
:100464008030831603138100C0308B008C0185011A
:10047400013086008030870003178801890103302A
:1004840081048B16DA30831203138100B4018030A7
:10049400A700FF30A800FF30A9000130AA00AB017B
:1004A400831601170B1631308312900083168C01CA
:1004B40001308312A300B701B8018E018F013330DC
:1004C400831699001815572185018601870112109A
:1004D400921012149210633083169200D5201210D9
:1004E400921012149210633083169200022191200C
:1004F4008920FF30B9004D20FF30B90099208610C3
:10050400061115211430A400A501DB208230FC0063
:10051400DD30FD00FD0B8C2AFC0B8C2A0000000052
:10052400350885000230FB000430FC00BA30FD00C1
:10053400FD0B9A2AFC0B9A2AFB0B9A2A0000872AA5
:02054400A22AE9
:04400E00D42F0007A4
:00000001FF
