:0A000000AD2A000000000000842B70
:0E000A00F201F101F001F801F30100300800ED
:100018007B15FB1F16280130F300F201F101F001F6
:08002800FA0DF20CFF30080094
:08003000FA1FF2130030080072
:10003800FB14FB1F2628FF30F300F200F100F0004C
:08004800FA0DF20CFF30080074
:06005000FB15FF30080063
:10005600831603139818312800002B28831256089C
:0400660099000800F5
:10006A007B14FB1F4028F201FA1FFF30F200F10057
:0A007A00F000FA0DF20CFF30080050
:1000840083120313F801F9011030FC00710DF80D0F
:10009400F90D7408F8027508031C750FF9020318AA
:1000A4005A287408F80775080318750FF907031020
:0A00B400F00DF10DFC0B48280800C8
:0C00BE000E30FD00FD0B61280000080062
:1000CA00A0017208031D7A287108F2007008F10075
:1000DA00F001A0157208031D7A287108F200F101D7
:1000EA00A01120167208031988282008F302031D9C
:1000FA00031C8C280310F21B9028F00DF10DF20D51
:10010A00F30B80288C280130FC000520932802304C
:0E011A00FC000C2093280430FC001820080084
:10012800831203137008F8007108F000F101F2015E
:10013800F301FB01FC019630F300FA017008F100AD
:0C0148007808F000F801F20165200800C2
:1001540083120313FB01FC01FA0173080319E92854
:10016400F2178E30F302F31BBA280319BA28EC28CD
:10017400F309F30A08307302031CCF28F300F10DCE
:100184007208F100F20108307302031CCF28F10D4C
:10019400F1017308031D0310D72873080319D72826
:1001A4000310F20CF10CF30BD2287B1B711CE12819
:1001B400031CE128F10A0319F20AF21BF828FA1FBA
:1001C400FB28F209F109F10A0319F20AFB28F201EA
:1001D400F101FB287B14FB1FFE28F201FA1FFE2805
:1001E400FF30F200F100FA0DF20CFE280130FC00A1
:1001F40000290030FC000029FF30FC00FC08031932
:0E020400042935207108F0007208F10008008E
:10021200831603139816903083129800831687175B
:10022200071383128C1E18291A08F00012290800DD
:10023200013083120313D3000430D4005108003C70
:10024200031D25295008093C03182829D30A5108FF
:10025200003C031D2E295008633C03183129D30AA0
:100262005108033C031D37295008E73C03183A297B
:10027200D30A5108273C031D402950080F3C03189C
:100282004329D30A5208840020308000840A203097
:100292008000840A20308000840A20308000840A92
:1002A20020308000840A8001840A5308003C03182D
:1002B200802954085207F0007008D5000A30F40073
:1002C200F5015008F0005108F10042207808F000D2
:1002D2007908F1003030F00755088400700880007A
:1002E200D4030A30F400F5015008F0005108F1007F
:1002F20042207008D0007108D100D30356290800AB
:100302008312031385010330FB008A30FC00553051
:10031200FD00FD0B8A29FC0B8A29FB0B8A290000B0
:100322000000FF3085000330FB008A30FC005530AE
:10033200FD00FD0B9A29FC0B9A29FB0B9A29000060
:10034200000085010330FB008A30FC005530FD00BF
:10035200FD0BA929FC0BA929FB0BA9290000000010
:10036200FF3085000330FB008A30FC005530FD0071
:10037200FD0BB929FC0BB929FB0BB92900000000C0
:0403820085010800E9
:10038600C030831203139F005008F000F00D701068
:10039600F00D701070089F0483169F1783121F14A8
:1003A6005F209F149F1CD9290000D5291F101E0805
:1003B600F300F4017308F100F00183161E087004BF
:1003C6008312D1007108D2000030D2045108F00027
:0603D6005208F1000800CE
:1003DC0083120313770803197D2A73080319802AE3
:1003EC00720876068039FA00F217F617A001720827
:1003FC00F8007108FC007008FD007408FD02750817
:10040C00031C750FFC027608031C760FF802F8012A
:10041C00FC01FD01031C192A0310F20CF10CF00C69
:10042C00F80C0130A0007708F302031C232A7E305D
:10043C002007F3070318832A282A7E302007F307A6
:10044C00031C862A1830FA07FD0DFC0DF80DF00D73
:10045C00F10DF20DA00D7408F0027508031C750F58
:10046C00F1027608031C760FF202760DA004201C14
:10047C00412A7D144C2A7408F00775080318750F6F
:10048C00F10776080318760AF2077D10FA031F307D
:10049C007A05031D2A2A7B1B7D1C732A0310F00D81
:1004AC00F10DF20DA00D7408F0027508031C750F08
:1004BC00F1027608031C760FF202760D2004013946
:1004CC00FD070318FC0A0319F80A031D732AF80C1C
:1004DC00FC0CFD0CF30A0319832AFA1FF813780895
:1004EC00F2007C08F1007D08F0000030882A013011
:1004FC002820882A02300520882A04301C20882ACB
:08050C0008300C20000008007B
:1005140083120313D101500884000008D20052084A
:10052400003A03199F2A5208D6002B20D10A5108F9
:0C053400500784000008D200912A080043
:10054000831203131A08F200981CA82A181218160E
:0A0550007208F1007108F0000800C5
:10055A007530831603138F0045308100C0308B003D
:10056A008C01013085001830860080308700013008
:10057A00031788000A308900803083120313C600EB
:10058A008030C7003130900083160C14FF3083127C
:10059A008E00FF308F00C501FF30C300FF30C4005A
:1005AA000130C100C20183168C1683128C013330CC
:1005BA008316990018150921850186018701810191
:1005CA000530AC00AB01AF01B001AD01AE010130A5
:1005DA00A6008121AF01B001AD01AE01A401A501C0
:1005EA00A901AA010130AB002B08403C031C1D2BBA
:1005FA000B30D000C3217008A7007108A800093089
:10060A00D000C3217008BD007108BE007008A4079D
:10061A0071080318013EA5072708AF072808031821
:10062A00013EB0072B08403A03191D2BAB0AF92AE1
:10063A000630F0002408F4002508F50070080319B4
:10064A002B2BF50CF40CF513FF3E242B7408A90090
:10065A007508AA000630F0002F08AD003008AE0079
:10066A00700803193D2BAE0CAD0CAE13FF3E362BB2
:10067A007408F0007508F10094203330F400333028
:10068A00F5001330F6008030F700EE21AA2070083A
:10069A00A9007108AA007030CE00CF014E30D000F8
:1006AA008A222D08D0002E08D100D10CD00CD113EB
:1006BA00D10CD00CD1133830D20019213830D000E7
:1006CA008A227430CE00CF014E30D0008A22290807
:1006DA00D0002A08D1003830D20019213830D00091
:1006EA008A220330FB000830FC007730FD00FD0B46
:0E06FA007C2BFC0B7C2BFB0B7C2BEF2A832B29
:10070800FF00030E8301C0000A08BF008A017008B9
:10071800A3007108A2007208A100F1010C1C962B1D
:100728000130F1007108013A031DF82B4508003A21
:10073800031DB52B41084305B30044084205B40026
:100748003318A82B8612A92B8616B318AD2B0610C2
:10075800AE2B06140130C5001F308E00FF308F000D
:10076800F72B4508013A031DCA2B3608463E84007C
:100778000008FC3EB100FE300318013EB20031080B
:100788008E0032088F000230C500F72B8612061043
:100798003608463E84000008FA3CB1000030031CCD
:1007A800013EFF3CB20031088E0032088F00B60AC5
:1007B8000319B70A4108F1004208F200F10DF20DE1
:1007C80071107108C1007208C2007208043A031D52
:1007D800EF2B00307106031DF62B0130C100C2015A
:1007E800B601B701C5010C108C1E202CA022700880
:1007F800B5002608013A031D0B2CB7303506031D3A
:10080800082C0230A6000A2C0130A6001D2C260850
:10081800023A031D142C3508C6000330A6001D2C0F
:100828002608033A031D1D2C3508C7000130A60011
:100838001D2C8C1283168C1683122308F0002208B4
:10084800F1002108F2003F088A00400E8300FF0EE5
:040858007F0E090006
:04400E00142C000767
:00000001FF
