:0A000000872A000000000000282BF2
:0E000A00F201F101F001F801F30100300800ED
:10001800FB14FB1F1628FF30F300F200F100F0007C
:08002800FA0DF20CFF30080094
:08003000FA1FF2130030080072
:100038007B15FB1F26280130F300F201F101F001C6
:08004800FA0DF20CFF30080074
:100050007C185E28FC182F287C197D282828A001F0
:100060007208031D4F287108F2007008F10078082B
:10007000F000F801A0157208031D4F287108F20066
:100080007008F100F001A01120167208031D4F281E
:100090007108F200F101A0157208031971282008F7
:1000A000F302031D031C75280310F21B5E28F80DD4
:1000B000F00DF10DF20DF30B552875287B1B701C0C
:1000C0007928F81F7928F00A0319F10A0319F20AAE
:1000D000031D7928F20CF10CF00CF30A03197D28AA
:1000E00079280130FC00052080280230FC001C200B
:1000F00080280430FC00182080280830FC000C20E8
:0401000000000800F3
:1001040083120313FB01FA01F9018030F800F10CAA
:10011400F00C031C96287408F90775080318750F6A
:10012400FA070318FB0A0310F01F9E287408FA0745
:1001340075080318750FFB07FB0CFA0CF90CF80C87
:10014400031C89287B08F3007A08F2007908F1007F
:060154007808F00008002D
:10015A007B14FB1FB828F201FA1FFF30F200F100EE
:0A016A00F000FA0DF20CFF3008005F
:1001740083120313F8010830FC00700DF80D7408A5
:10018400F8020318C728F8070310F00DFC0BBF286A
:02019400080061
:10019600831603139818D1280000CB2883123D0834
:0401A60099000800B4
:0A01AA000730FD00FD0BD728080008
:1001B40083160313981690308312980083168717BA
:1001C400071383128C1EE9281A08F000E32808009C
:0C01D40083120313950117129712080004
:1001E000831203131A08F200981CF8281812181624
:0A01F0007208F1007108F000080029
:1001FA0083120313BA01390884000008BB003B08C4
:10020A00003A031912293B08BD00CB20BA0A3A0862
:0C021A00390784000008BB00042908001C
:10022600831203133A08840020308000840A2030A9
:100236008000840A20308000840A8001840A02300B
:10024600BB003B083A07F0007008BC000A30F40017
:100256003908F000BA207808F0003030F0073C0882
:100266008400700880000A30F4003908F000BA20D3
:100276007008B9007008003A031D42294429BB03DF
:04028600242908001F
:10028A00831203137008F800FB01FC019E30F3008F
:10029A00FA01F201F101F0010230FC002820080005
:1002AA00831603138710831212150C309D0408005D
:1002BA00C030831203139F003908F000F00D70104C
:1002CA00F00D701070089F0483169F1783121F1475
:1002DA00D5209F149F1C732900006F291F101E0828
:1002EA00F300F4017308F100F00183161E0870048C
:1002FA008312BA007108BB000030BB043A08F00050
:06030A003B08F1000800B1
:1003100083120313FB017308031D77080319DF29F8
:1003200072087606FA007708F3077E30031C9C29D2
:10033000F3020318E2299F29F302031CE52972083E
:10034000F8007108FC007008FD00F817F61703109C
:10035000F201F101F0011830A0007D1CB9297408E8
:10036000F00775080318750FF10776080318760F64
:10037000F207F20CF10CF00CF80CFC0CFD0C031065
:10038000A00BAD29F21BC929F80DF00DF10DF20DEE
:10039000F3037B1B701CDB29F81FDB29F00A031910
:1003A000F10A0319F20A031DDB29F20CF10CF00C1F
:1003B000F30A0319E229FA1FF2130030E72901308A
:1003C0000520E72902300C20E72904301C2000001A
:0203D000080023
:1003D20083120313FB01FC01FA0173080319162AA5
:1003E200FA13F2178630F302F31BFA290319FA29DA
:1003F200182AF309F30A08307302031C072AF300D0
:10040200F20DF2017308031D03100E2A730803197B
:100412000E2A0310F20CF30B0A2A7B1B721C162AFB
:10042200031C162AF20A03191D2AF101202A7B1441
:10043200FB1F232AF101232A0130FC00252A003068
:10044200FC00252AFF30FC00FC080319292AAD20F4
:060452007208F000080032
:0C045800831203139B011D129D1208006B
:10046400831603130711831212150C309704080026
:100474000030831203138C1A0130F1007108F0006C
:0204840008006E
:1004860083160313071583121211F030970508001F
:10049600831603131208F000F101F00A0319F10A9A
:1004A60083123908F400F50182200630F200700844
:1004B600F4007108F50072080319662AF50CF40CAD
:1004C600F513FF3E5F2A0430F1007408F00071084E
:1004D6000319712AF00D7010FF3E6B2A8312031365
:1004E60030307005F3007408F0007508F100F10C67
:1004F600F00CF113F10CF00CF113700895000F30AD
:08050600970573089704080033
:10050E00C030831603138100D0308B00303083123D
:10051E0090000C100B308F00DB308E0083160C1405
:10052E000130031788008901013003138500013063
:10053E00860080308700831285018701193083166B
:10054E0099001815DA201210921012109210C7305E
:10055E0083169200EA201210921012109210C730D9
:10056E00831692002C22322255210130A600023031
:10057E00A7003A227008013A031DF32AF0207008F2
:10058E00A50070086D3A031DE32AB9015D217008BC
:10059E00A2007108A300A30CA20CA313A30CA20C1F
:1005AE00A3130730FC007D30FD00FD0BDC2AFC0B95
:1005BE00DC2A2208A400F32A30302502F00045215F
:1005CE00D730F400A330F5006230F6008330F70028
:1005DE008821E9217008A400FA302402031CF92AAC
:1005EE004322FA2A32222408B9004B222408FF3C67
:1005FE0085002F08B9003130BA0013212408FF3CC2
:10060E00B9002A30BA0013217430BD00CB202A3035
:10061E00B900FD206630BD00CB203130B900FD2081
:10062E000A30BD00CB200D30BD00CB204130FC0088
:10063E00EE30FD00FD0B212BFC0B212B0000C02A00
:02064E00272B58
:10065000FF00030E8301A8000A08A9008A017008A0
:10066000A1008B1C3E2BB60A0319B70A2608013AD3
:10067000031D3D2B31309000A6018B100C1C502B1C
:100680000B308F00DB308E003608AF003708B0002B
:10069000AF0DB00D2F10B601B7010130B8000C102E
:1006A0002108F00029088A00280E8300FF0E7F0E23
:0206B00009003F
:04400E00F22C000789
:00000001FF
