:02000000642872
:10000800FF00030E8301A4000A08A0008A0120084B
:0C0018008A00240E8300FF0E7F0E0900FA
:10002400831603139816903083129800831687174B
:10003400071383128C1E21281A08F0001B280800BD
:100044008312031385010330FB008A30FC00553012
:10005400FD00FD0B2B28FC0B2B28FB0B2B28000091
:100064000000FF3085000330FB008A30FC0055306F
:10007400FD00FD0B3B28FC0B3B28FB0B3B28000041
:10008400000085010330FB008A30FC005530FD0080
:10009400FD0B4A28FC0B4A28FB0B4A2800000000F1
:1000A400FF3085000330FB008A30FC005530FD0032
:1000B400FD0B5A28FC0B5A28FB0B5A2800000000A1
:0400C40085010800AA
:1000C8007530831603138F00C5308100D0308B0044
:1000D8008C01850101308600803087000317880174
:1000E80002308900803083120313AB003130900056
:1000F80083160C14FF3083128E00FF308F00AA0184
:10010800FF30AC00FF30AD000130A800A901831614
:100118008C1683128C01333083169900181512201F
:10012800850186018701FF30AB000130A200A101E3
:10013800A301A501222086010630FB001330FC0034
:10014800AD30FD00FD0BA628FC0BA628FB0BA6284E
:08015800000000009F28AF2801
:04400E00D42F0007A4
:00000001FF
