:0A0000006E290000000000009F2898
:0C000A000E30FD00FD0B07280000080070
:100016008312031385010330FB008A30FC00553040
:10002600FD00FD0B1428FC0B1428FB0B1428000004
:100036000000FF3085000330FB008A30FC0055309D
:10004600FD00FD0B2428FC0B2428FB0B24280000B4
:10005600000085010330FB008A30FC005530FD00AE
:10006600FD0B3328FC0B3328FB0B33280000000064
:10007600FF3085000330FB008A30FC005530FD0060
:10008600FD0B4328FC0B4328FB0B43280000000014
:0400960085010800D8
:10009A00C030831203139F003C08F000F00D70106B
:1000AA00F00D701070089F0483169F1783121F1497
:1000BA0005209F149F1C632800005F281F101E083C
:1000CA00F300F4017308F100F00183161E087004AE
:1000DA008312BD007108BE000030BE043D08F00066
:0600EA003E08F1000800D1
:1000F0008316031398187E280000782883123C0882
:04010000990008005A
:10010400831603139816903083129800831687176A
:10011400071383128C1E91281A08F0008B280800FC
:10012400831203131A08F200981C9A28181218163E
:0A0134007208F1007108F0000800E5
:10013E00FF00030E8301B9000A08B5008A0170089A
:10014E00A4007108A3007208A2007308A10074082D
:10015E00A000F1010C1CB5280130F1007108013A24
:10016E00031D26293A08003A031DCF282D082B051A
:10017E00B0002C082E05B1003018C7288611C828EB
:10018E0086150130BA006A308E00FF308F002529A7
:10019E003A08013A031DF1283B087C3EB200FE30BE
:1001AE000318013EB3003B08F300F4017308F0009E
:1001BE007408F100F10CF00CF1137008B20771081D
:1001CE000318013EB30732088E0033088F00023049
:1001DE00BA00252986113B08FA3CB2000030031CF8
:1001EE00013EFF3CB3003B08F300F4017308F0003E
:1001FE007408F100F10CF00CF1137008B202031C3C
:10020E00B3037108B30232088E0033088F002D0835
:10021E00F1002E08F200F10DF20D71107108AD0013
:10022E007208AE007208023A031D1F2900307106D3
:10023E00031D24290130AD00AE01BA010C108C1E35
:10024E00472992207008B4002908013A031D3B2962
:10025E00B7303406031D38290230A9003408850052
:10026E003A290130A90044292908023A031D4429DC
:10027E003408AF000130A90044298C1283168C1665
:10028E008B1C562983122F08003A03195329861204
:10029E002F0881008B16542986128B100B160B1DFE
:1002AE005C29831286160B118B1283122408F00020
:1002BE002308F1002208F2002108F3002008F400C0
:0E02CE0035088A00390E8300FF0E7F0E0900EE
:1002DC007530831603138F00C5308100D0308B002E
:1002EC008C0185011130860080308700031788014E
:1002FC0008308900803083120313BB00313090002A
:10030C0083160C14FF3083128E00FF308F00BA015D
:10031C00FF30AB00FF30AC000130AD00AE018316F6
:10032C008C1683128C013330831699001815822099
:10033C008501860187018101BB010530AF00AA014F
:10034C00A501A601A701A8010130A9000B200130CD
:10035C00AA002A08403C031CD0290B30BC004D20BD
:10036C007008B6007008B700B8010630FC003030D9
:10037C00FD00FD0BBF29FC0BBF2900003708A507AA
:10038C0038080318013EA6072A08403A0319D02959
:10039C00AA0AAF290630F0002508A7002608A800F5
:1003AC0070080319DE29A80CA70CA813FF3ED72947
:1003BC00B730BC0078202708BC007820AA01A50122
:1003CC00A601A701A8010330FB000830FC00773020
:1003DC00FD00FD0BEF29FC0BEF29FB0BEF29AD29E1
:0203EC00F629F0
:04400E00342C000747
:00000001FF
