:0A000000FD29000000000000B329F4
:10000A0083120313FB01FA01F9018030F800F10CA5
:10001A00F00C031C19287408F90775080318750FE2
:10002A00FA070318FB0A0310F01F21287408FA07BD
:10003A0075080318750FFB07FB0CFA0CF90CF80C82
:10004A00031C0C287B08F3007A08F2007908F100F7
:06005A007808F000080028
:0A0060000730FD00FD0B32280800F8
:10006A008316031398183B280000352883123E088C
:04007A0099000800E1
:10007E0083120313F8010830FC00700DF80D74089C
:10008E00F80203184C28F8070310F00DFC0B442857
:02009E00080058
:1000A000831603131208F000F101F00A0319F10A94
:1000B00083123A08F400F50105200630F2007008BA
:1000C000F4007108F500720803196B28F50CF40CA4
:1000D000F513FF3E64280430F1007408F000710845
:1000E00003197628F00D7010FF3E70288312031359
:1000F00030307005F3007408F0007508F100F10C61
:10010000F00CF113F10CF00CF113700895000F30A6
:0801100097057308970408002D
:10011800831603131208F000F101F00A0319F10A1B
:1001280083123A08F400F50105200630F200700841
:10013800F4007108F50072080319A728F50CF40CEF
:10014800F513FF3EA0280430F1007408F000710890
:100158000319B228F00D7010FF3EAC288312031368
:1001680030307005F3007408F0007508F100F10CE8
:10017800F00CF113F10CF00CF11370089B000F3028
:080188009D0573089D040800A9
:10019000C030831203139F003A08F000F00D701076
:1001A000F00D701070089F0483169F1783121F14A0
:1001B00030209F149F1CDE280000DA281F101E0824
:1001C000F300F4017308F100F00183161E087004B7
:1001D0008312BB007108BC000030BC043B08F00077
:0601E0003C08F1000800DC
:1001E60083120313BB013A0884000008BC003C08D4
:1001F600003A031908293C08BE003520BB0A3B0813
:0C0206003A0784000008BC00FA28080039
:10021200831603130711831212150C30970408007A
:10022200831603138710831212150C309D040800E5
:10023200831203133B08840020308000840A20309C
:100242008000840A20308000840A8001840A0230FF
:10025200BC003C083B07F0007008BD000A30F40007
:100262003A08F0003F207808F0003030F0073D08EF
:100272008400700880000A30F4003A08F0003F2041
:100282007008BA007008003A031D48294A29BC03C5
:040292002A2908000D
:0C02960083120313950117129712080041
:1002A20083120313F801F9011030FC00710DF80DEF
:1002B200F90D7408F8027508031C750FF90203188A
:1002C20069297408F80775080318750FF9070310F0
:0A02D200F00DF10DFC0B5729080098
:1002DC00831203137008F100F0010830FC00710860
:1002EC00F40C03187D29FC0B7629F1010034031062
:1002FC008229F40C0318F107F10CF00CFC0B7F298C
:02030C000800E7
:10030E000030831203138C1A0130F1007108F000D3
:02031E000800D5
:0C032000831203139B011D129D120800A4
:10032C008316031398169030831298008316871740
:10033C00071383128C1EA5291A08F0009F290800A8
:10034C00831203131A08F200981CAE2918121816FF
:0A035C007208F1007108F0000800BB
:10036600FF00030E8301AC000A08AD008A01700885
:10037600A5007108A4007208A3007B08A2007C08EF
:10038600A1007D08A00087217008013A031DEA2913
:1003960005150230FB008630FC009930FD00FD0B90
:1003A600D229FC0BD229FB0BD22905110230FB0006
:1003B6008630FC009930FD00FD0BDF29FC0BDF29A0
:1003C600FB0BDF29A6217008B7007008B5002508C9
:1003D600F0002408F1002308F2002208FB0021089F
:1003E600FC002008FD002D088A002C0E8300FF0E5D
:0403F6007F0E09006D
:1003FA008030831603138100C0308B0020308C00BC
:10040A000130031788000A30890001300313850080
:10041A0018308600803087008312850187011930E1
:10042A008316990018159621121092101214921020
:10043A00F930831692004B21121092101214921066
:10044A00F93083169200902109211121BA01502016
:10045A00BA018C20B601AA010130AB00B6012830DE
:10046A0036020318562A0930BA00C8207008A900B3
:10047A00000000000000000000000B30BA00C82095
:10048A007008A60000000000000000000000290813
:10049A00A7070318A80A2608B3070318B40AB60A56
:1004AA00342A2830F400F5012708F0002808F10062
:1004BA0051216430F400F5010520E630F400F5011D
:1004CA0051217008A7007108A8002830F400F5012E
:1004DA003308F0003408F10051216430F400F501CA
:1004EA000520E630F400F50151217008B3007108C7
:1004FA00B40086143508F0001C30F4006E21700830
:10050A00BA00502006153508F0001C30F4006E21A0
:10051A007008BA008C206930B800B9013830BA00C6
:10052A00F3202708BA002E30BB0019212E30BA005A
:10053A00F3206F30B800B9013830BA00F32033081D
:10054A00BA002E30BB0019212E30BA00F320023037
:06055A008506332AAF2ADA
:04400E00F22C000789
:00000001FF
