:02000000372A9D
:10000800FF00030E8301A3000A08A6008A017008F6
:10001800A2007108A1007208A000F1010B1D1628AA
:100028000130F1007108013A031D57283508003ADC
:10003800031D2E2833083105AC0032083405AD0005
:100048002C1828288612292886160130B500DA309F
:10005800810056283508013A031D3B28023030023A
:10006800F0007008FF3C81000230B5005628861267
:100078000230300281003308F1003408F200F10D3B
:10008800F20D71107108B3007208B4007208023AD8
:10009800031D502800307106031D55280130B30098
:1000A800B401B5010B11F1018C1E5C280130F1007F
:1000B8007108013A031DA128C4217008A800270867
:1000C800013A031D7228AA302806031D6E28023043
:1000D800A70071280130A700A901A0282708023A23
:1000E800031D8128CC302806031D7D280330A70076
:1000F80080280130A700A901A0282708033A031D7A
:100108008A282808AB000430A700A0282708043A4A
:10011800031D93282808AA000530A700A02827084F
:10012800053A031DA028DD302806031D9D2801304F
:10013800A9000130A700A0288C128B1CC2283A08FD
:10014800013A031DAF288E018F0110148316011385
:100158008312BA01C12810108316011783120E08E2
:10016800F000F1010F087007B60071080318013E8E
:10017800B7008E018F010130BA008B102208F00001
:100188002108F1002008F20026088A00230E8300C7
:06019800FF0E7F0E0900BE
:10019E0083120313F801F9011030FC00710DF80DF4
:1001AE00F90D7408F8027508031C750FF90203188F
:1001BE00E7287408F80775080318750FF907031078
:0A01CE00F00DF10DFC0BD528080020
:1001D80083120313FB01FA01F9018030F800F10CD6
:1001E800F00C031C00297408F90775080318750F2B
:1001F800FA070318FB0A0310F01F08297408FA0706
:1002080075080318750FFB07FB0CFA0CF90CF80CB2
:10021800031CF3287B08F3007A08F2007908F10040
:060228007808F000080058
:10022E00831603139816903083129800831687173F
:10023E00071383128C1E26291A08F00020290800A5
:0C024E0083120313950117129712080089
:10025A00831603130711831212150C309704080032
:0C026A00831203139B011D129D1208005B
:10027600831603138710831212150C309D04080091
:10028600831603131208F000F101F00A0319F10AAC
:1002960083123B08F400F501EC200630F2007008EA
:1002A600F4007108F500720803195E29F50CF40CC8
:1002B600F513FF3E57297408F0007508F100F00D9C
:1002C600F10D7010F00DF10D7010F00DF10D7010B4
:1002D600F00DF10D701030307005F3007408F00069
:1002E6007508F100F10CF00CF113F10CF00CF113A0
:0E02F60070089B000F309D0573089D040800E2
:100304008312031385010330FB008A30FC0055304F
:10031400FD00FD0B8B29FC0B8B29FB0B8B290000AB
:100324000000FF3085000330FB008A30FC005530AC
:10033400FD00FD0B9B29FC0B9B29FB0B9B2900005B
:10034400000085010330FB008A30FC005530FD00BD
:10035400FD0BAA29FC0BAA29FB0BAA29000000000B
:10036400FF3085000330FB008A30FC005530FD006F
:10037400FD0BBA29FC0BBA29FB0BBA2900000000BB
:0403840085010800E7
:10038800831203131A08F200981CCC2918121816A5
:0A0398007208F1007108F00008007F
:1003A200831603131208F000F101F00A0319F10A8F
:1003B20083123B08F400F501EC200630F2007008CD
:1003C200F4007108F50072080319EC29F50CF40C1D
:1003D200F513FF3EE5297408F0007508F100F00DF1
:1003E200F10D7010F00DF10D7010F00DF10D701097
:1003F200F00DF10D701030307005F3007408F0004C
:100402007508F100F10CF00CF113F10CF00CF11382
:0E041200700895000F309705730897040800D6
:100420008312031387162130FD00FD0B152A871256
:100430008230FC00DD30FD00FD0B1C2AFC0B1C2A69
:10044000000000003608F0003708F1000F30F4001B
:10045000F501EC207008B8007108B9001C30F400F8
:0E046000F501CF207008B8007108B90008003F
:10046E008030831603138100C0308B008C01850110
:10047E000130860080308700031788018901033020
:10048E0081048B16DA30831203138100B50180309C
:10049E00B000FF30B100FF30B2000130B300B40144
:1004AE00831601170B1631308312900083168C01C0
:1004BE0001308312BA00B601B7018E018F013330BD
:1004CE0083169900181517218501860187011210D0
:1004DE00921012149210633083169200272112107C
:1004EE0092101214921063308316920035212D2132
:1004FE003B21FF30BB00D121FF30BB0043218610D2
:10050E00061182211430A400A50110228230FC00B5
:10051E00DD30FD00FD0B912AFC0B912A000000003E
:10052E00380885000230FB000430FC00BA30FD00B4
:10053E00FD0B9F2AFC0B9F2AFB0B9F2A00008C2A87
:02054E00A72ADA
:04400E00D42F0007A4
:00000001FF
