:02000000742A60
:10000800FF00030E8301A6000A08A5008A017008F4
:10001800A4007108A3007208A2007308A100740864
:10002800A000F1010C1C1A280130F1007108013AF6
:10003800031D8B283908003A031D34283D083A056A
:10004800B4003B083E05B50034182C2806122D28AC
:1000580006160130B9006A308E00FF308F008A28FA
:100068003908013A031D56283C087C3EB200FE3090
:100078000318013EB3003C08F300F4017308F000D4
:100088007408F100F10CF00CF1137008B207710854
:100098000318013EB30732088E0033088F00023080
:1000A800B9008A2806123C08FA3CB2000030031C4A
:1000B800013EFF3CB3003C08F300F4017308F00074
:1000C8007408F100F10CF00CF1137008B202031C73
:1000D800B3037108B30232088E0033088F003D085D
:1000E800F1003E08F200F10DF20D71107108BD002B
:1000F8007208BE007208023A031D84280030710697
:10010800031D89280130BD00BE01B9010C10F101A1
:100118008C1E90280130F1007108013A031DD62881
:1001280067227008B1003608013A031DA628B730C7
:100138003106031DA2280230B600A5280130B600FA
:10014800AD01D5283608023A031DAF283108AC00A6
:100158000330B600D5283608033A031DB8283108FD
:10016800AA000430B600D5283608043A031DC12871
:100178003108A8000530B600D5283608053A031D11
:10018800CA283108AB000630B600D5283608063A2A
:10019800031DD5283108A7000130AD000130B60095
:1001A800D5288C128B1CEC284108013A031DE22843
:1001B8008101831601138312C101EB2883160117ED
:1001C80083120108B700B80181010130C1008B100A
:1001D8002408F0002308F1002208F2002108F300A7
:1001E8002008F40025088A00260E8300FF0E7F0EE3
:0201F8000900FC
:1001FA0083120313F801F9011030FC00710DF80D98
:10020A00F90D7408F8027508031C750FF902031832
:10021A0015297408F80775080318750FF9070310EC
:0A022A00F00DF10DFC0B0329080094
:1002340083120313FB01FA01F9018030F800F10C79
:10024400F00C031C2E297408F90775080318750FA0
:10025400FA070318FB0A0310F01F36297408FA077B
:1002640075080318750FFB07FB0CFA0CF90CF80C56
:10027400031C21297B08F3007A08F2007908F100B5
:060284007808F0000800FC
:0C028A008312031395011712971208004D
:0C029600831203139B011D129D1208002F
:1002A200831603131208F000F101F00A0319F10A90
:1002B20083124208F400F5011A210630F200700898
:1002C200F4007108F500720803196C29F50CF40C9E
:1002D200F513FF3E65297408F0007508F100F00D72
:1002E200F10D7010F00DF10D7010F00DF10D701098
:1002F200F00DF10D701030307005F3007408F0004D
:100302007508F100F10CF00CF113F10CF00CF11383
:0E031200700895000F309705730897040800D7
:10032000831603130711831212150C30970408006B
:10033000831603138710831212150C309D040800D6
:10034000831603139816903083129800831687172C
:10035000071383128C1EAF291A08F000A929080080
:10036000831603131208F000F101F00A0319F10AD1
:1003700083124208F400F5011A210630F2007008D9
:10038000F4007108F50072080319CB29F50CF40C80
:10039000F513FF3EC4297408F0007508F100F00D54
:1003A000F10D7010F00DF10D7010F00DF10D7010D9
:1003B000F00DF10D701030307005F3007408F0008E
:1003C0007508F100F10CF00CF113F10CF00CF113C5
:0E03D00070089B000F309D0573089D04080007
:1003DE008312031385010330FB008A30FC00553075
:1003EE00FD00FD0BF829FC0BF829FB0BF82900008A
:1003FE000000FF3085000330FB008A30FC005530D2
:10040E00FD00FD0B082AFC0B082AFB0B082A000036
:10041E00000085010330FB008A30FC005530FD00E2
:10042E00FD0B172AFC0B172AFB0B172A00000000E6
:10043E00FF3085000330FB008A30FC005530FD0094
:10044E00FD0B272AFC0B272AFB0B272A0000000096
:04045E00850108000C
:100462008312031387162130FD00FD0B362A8712F3
:100472006830FC00E430FD00FD0B3D2AFC0B3D2AF8
:1004820000000730F2003708F0003808F100720867
:100492000319502AF00DF10D7010FF3E492A700821
:1004A200BF007108C0007430F400F501FD2070082F
:0804B200BF007108C000080042
:1004BA00831603139818632A00005D2A83124208E0
:0404CA00990008008D
:1004CE00831203131A08F200981C6F2A18121816BA
:0A04DE007208F1007108F000080038
:1004E8007530831603138F0080308100C0308B0075
:1004F8008C01850101308600803087000317880150
:100508008901803083120313BC00313090008316B8
:100518000C14FF3083128E00FF308F00B901FF30BA
:10052800BA00FF30BB000130BD00BE014630831663
:1005380081040B1601308312C100B701B80183167C
:100548008C16333099001815A0210130B6008501AA
:1005580086018701121092101214921063308316CC
:1005680092004521121092101214921063308316D3
:1005780092004B2190219821AB01AA018030BC0048
:10058800B730A900B730AE00AD01C20151212B0828
:10059800C200B02186100611EF2131222D08013A40
:1005A800031DE92A2C08BC002A08C200512128187A
:1005B800DF2A8610E02A86142B08C200B0212718EB
:1005C800E72A0611E82A0615AD012E08C2005D22A9
:1005D8003F08C2005D220330FB000830FC00773082
:1005E800FD00FD0BF52AFC0BF52AFB0BF52A3F084D
:0605F8008500D12AFE2A55
:04400E00142C000767
:00000001FF
