:0A000000DC280000000000000028CA
:0C000A000E30FD00FD0B07280000080070
:10001600831603139818112800000B288312310841
:040026009900080035
:10002A0083120313F8010830FC00700DF80D7408F0
:10003A00F80203182228F8070310F00DFC0B1A28FF
:02004A000800AC
:10004C000030831203138C1A0130F1007108F00098
:02005C0008009A
:10005E008316031398169030831298008316871711
:10006E00071383128C1E3E281A08F0003828080049
:10007E00831203131A08F200981C47281812181638
:0A008E007208F1007108F00008008C
:10009800C030831203139F002D08F000F00D70107C
:1000A800F00D701070089F0483169F1783121F1499
:1000B80005209F149F1C622800005E281F101E0840
:1000C800F300F4017308F100F00183161E087004B0
:1000D8008312AE007108AF000030AF042E08F000A4
:0600E8002F08F1000800E2
:1000EE0083120313AE012D0884000008AF002F0801
:1000FE00003A03198C282F08B1000B20AE0A2E08E7
:0C010E002D0784000008AF007E280800C8
:10011A0083120313F801F9011030FC00710DF80D78
:10012A00F90D7408F8027508031C750FF902031813
:10013A00A5287408F80775080318750FF90703103E
:0A014A00F00DF10DFC0B93280800E6
:10015400831203132E08840020308000840A203088
:100164008000840A20308000840A8001840A0230DE
:10017400AF002F082E07F0007008B0000A30F4001A
:100184002D08F00015207808F0003030F007300812
:100194008400700880000A30F4002D08F000152057
:1001A4007008AD007008003A031DD928DB28AF039E
:0401B400BB2808005C
:1001B80001308316031788001030890001300313BB
:1001C8008500013086008030870083128501860112
:1001D800870133308316990018152F20AD014C2064
:1001E8007008A2000C30AD004C2022087007A10056
:1001F800A00126207008013A031D0E293F2070082F
:10020800AA007008303A031D0C29851586150E2999
:1002180085118611A001A801A901643020020318E4
:100228002429AD014C207008A2000C30AD004C20F0
:100238007008A1007008A8070318A90AA00A1129C4
:100248006430F400F5012808F0002908F1008D2039
:100258007008A8007108A9007030AB00AC012B3001
:10026800AD0077202808AD002330AE00AA20233047
:10027800AD00772085140230FB000430FC00BA3052
:10028800FD00FD0B4529FC0B4529FB0B452900000A
:1002980085100230FB000430FC00BA30FD00FD0B75
:1002A8005329FC0B5329FB0B53290000FD285B291C
:04400E00D42F0007A4
:00000001FF
